{
  "_format": "hh-sol-artifact-1",
  "contractName": "FabrikPatientenakte",
  "sourceName": "contracts/FabricOfPatientenakte.sol",
  "abi": [
    {
      "anonymous": false,
      "inputs": [
        {
          "indexed": true,
          "internalType": "address",
          "name": "_patient",
          "type": "address"
        },
        {
          "indexed": false,
          "internalType": "address",
          "name": "patientenakteContract",
          "type": "address"
        }
      ],
      "name": "PatientenakteErstellt",
      "type": "event"
    },
    {
      "inputs": [],
      "name": "createNewPatientenakte",
      "outputs": [],
      "stateMutability": "nonpayable",
      "type": "function"
    },
    {
      "inputs": [
        {
          "internalType": "address",
          "name": "_patient",
          "type": "address"
        }
      ],
      "name": "getPatientenakte",
      "outputs": [
        {
          "internalType": "address",
          "name": "",
          "type": "address"
        }
      ],
      "stateMutability": "view",
      "type": "function"
    },
    {
      "inputs": [
        {
          "internalType": "address",
          "name": "",
          "type": "address"
        }
      ],
      "name": "patientenakte",
      "outputs": [
        {
          "internalType": "address",
          "name": "",
          "type": "address"
        }
      ],
      "stateMutability": "view",
      "type": "function"
    }
  ],
  "bytecode": "0x6080604052348015600f57600080fd5b506130378061001f6000396000f3fe608060405234801561001057600080fd5b50600436106100415760003560e01c80636a94f85a14610046578063cd56258414610076578063d04b6f63146100a6575b600080fd5b610060600480360381019061005b919061045a565b6100b0565b60405161006d9190610496565b60405180910390f35b610090600480360381019061008b919061045a565b6101e4565b60405161009d9190610496565b60405180910390f35b6100ae610217565b005b60008073ffffffffffffffffffffffffffffffffffffffff166000808473ffffffffffffffffffffffffffffffffffffffff1673ffffffffffffffffffffffffffffffffffffffff16815260200190815260200160002060009054906101000a900473ffffffffffffffffffffffffffffffffffffffff1673ffffffffffffffffffffffffffffffffffffffff160361017e576040517f08c379a00000000000000000000000000000000000000000000000000000000081526004016101759061050e565b60405180910390fd5b6000808373ffffffffffffffffffffffffffffffffffffffff1673ffffffffffffffffffffffffffffffffffffffff16815260200190815260200160002060009054906101000a900473ffffffffffffffffffffffffffffffffffffffff169050919050565b60006020528060005260406000206000915054906101000a900473ffffffffffffffffffffffffffffffffffffffff1681565b600073ffffffffffffffffffffffffffffffffffffffff166000803373ffffffffffffffffffffffffffffffffffffffff1673ffffffffffffffffffffffffffffffffffffffff16815260200190815260200160002060009054906101000a900473ffffffffffffffffffffffffffffffffffffffff1673ffffffffffffffffffffffffffffffffffffffff16146102e4576040517f08c379a00000000000000000000000000000000000000000000000000000000081526004016102db906105a0565b60405180910390fd5b6000336040516102f3906103ea565b6102fd9190610496565b604051809103906000f080158015610319573d6000803e3d6000fd5b509050806000803373ffffffffffffffffffffffffffffffffffffffff1673ffffffffffffffffffffffffffffffffffffffff16815260200190815260200160002060006101000a81548173ffffffffffffffffffffffffffffffffffffffff021916908373ffffffffffffffffffffffffffffffffffffffff1602179055503373ffffffffffffffffffffffffffffffffffffffff167fdd9972484392cbb6146f94b9a7686540311d88d8878f5af2bf2fd0f9952e98f2826040516103df9190610496565b60405180910390a250565b612a41806105c183390190565b600080fd5b600073ffffffffffffffffffffffffffffffffffffffff82169050919050565b6000610427826103fc565b9050919050565b6104378161041c565b811461044257600080fd5b50565b6000813590506104548161042e565b92915050565b6000602082840312156104705761046f6103f7565b5b600061047e84828501610445565b91505092915050565b6104908161041c565b82525050565b60006020820190506104ab6000830184610487565b92915050565b600082825260208201905092915050565b7f50617469656e7420686174206b65696e6520416b746500000000000000000000600082015250565b60006104f86016836104b1565b9150610503826104c2565b602082019050919050565b60006020820190508181036000830152610527816104eb565b9050919050565b7f50617469656e74656e616b74652069737420626572656974732065727374656c60008201527f6c74000000000000000000000000000000000000000000000000000000000000602082015250565b600061058a6022836104b1565b91506105958261052e565b604082019050919050565b600060208201905081810360008301526105b98161057d565b905091905056fe608060405234801561001057600080fd5b50604051612a41380380612a41833981810160405281019061003291906100db565b806000806101000a81548173ffffffffffffffffffffffffffffffffffffffff021916908373ffffffffffffffffffffffffffffffffffffffff16021790555050610108565b600080fd5b600073ffffffffffffffffffffffffffffffffffffffff82169050919050565b60006100a88261007d565b9050919050565b6100b88161009d565b81146100c357600080fd5b50565b6000815190506100d5816100af565b92915050565b6000602082840312156100f1576100f0610078565b5b60006100ff848285016100c6565b91505092915050565b61292a806101176000396000f3fe608060405234801561001057600080fd5b50600436106100885760003560e01c806370c2b4191161005b57806370c2b419146101255780639c91c6e21461015a578063a99d83791461018a578063bd96bd20146101a657610088565b80630f91d9c11461008d5780630fcc0970146100bd5780633132ddfe146100d9578063644af5e114610109575b600080fd5b6100a760048036038101906100a29190611550565b6101c4565b6040516100b4919061160d565b60405180910390f35b6100d760048036038101906100d29190611a66565b61038c565b005b6100f360048036038101906100ee9190611550565b610776565b6040516101009190611bbc565b60405180910390f35b610123600480360381019061011e9190611550565b610a8f565b005b61013f600480360381019061013a9190611bd7565b610d52565b60405161015196959493929190611c35565b60405180910390f35b610174600480360381019061016f9190611c9d565b610e3d565b6040516101819190611dea565b60405180910390f35b6101a4600480360381019061019f9190611bd7565b6112e9565b005b6101ae611462565b6040516101bb9190611e1b565b60405180910390f35b60606000600160003373ffffffffffffffffffffffffffffffffffffffff1673ffffffffffffffffffffffffffffffffffffffff168152602001908152602001600020600084815260200190815260200160002090506000816000015414158061023357506000816001015414155b8061024c57508060020160009054906101000a900460ff165b8061026557508060020160019054906101000a900460ff165b6102a4576040517f08c379a000000000000000000000000000000000000000000000000000000000815260040161029b90611e82565b60405180910390fd5b4261038482600401546102b79190611ed1565b116102f7576040517f08c379a00000000000000000000000000000000000000000000000000000000081526004016102ee90611f77565b60405180910390fd5b80600301805461030690611fc6565b80601f016020809104026020016040519081016040528092919081815260200182805461033290611fc6565b801561037f5780601f106103545761010080835404028352916020019161037f565b820191906000526020600020905b81548152906001019060200180831161036257829003601f168201915b5050505050915050919050565b60008054906101000a900473ffffffffffffffffffffffffffffffffffffffff1673ffffffffffffffffffffffffffffffffffffffff163373ffffffffffffffffffffffffffffffffffffffff161461041a576040517f08c379a000000000000000000000000000000000000000000000000000000000815260040161041190612069565b60405180910390fd5b600087511161045e576040517f08c379a0000000000000000000000000000000000000000000000000000000008152600401610455906120d5565b60405180910390fd5b60008651116104a2576040517f08c379a000000000000000000000000000000000000000000000000000000000815260040161049990612167565b60405180910390fd5b80518651146104e6576040517f08c379a00000000000000000000000000000000000000000000000000000000081526004016104dd906121f9565b60405180910390fd5b82156104f55760009450610538565b428511610537576040517f08c379a000000000000000000000000000000000000000000000000000000000815260040161052e9061228b565b60405180910390fd5b5b8115610547576000935061058b565b6000841161058a576040517f08c379a0000000000000000000000000000000000000000000000000000000008152600401610581906122f7565b60405180910390fd5b5b60005b865181101561076c5760008782815181106105ac576105ab612317565b5b6020026020010151905060008383815181106105cb576105ca612317565b5b6020026020010151905060005b8a5181101561075c5760008b82815181106105f6576105f5612317565b5b602002602001015190506040518060c001604052808b81526020018a8152602001891515815260200188151581526020018481526020016000815250600160008373ffffffffffffffffffffffffffffffffffffffff1673ffffffffffffffffffffffffffffffffffffffff1681526020019081526020016000206000868152602001908152602001600020600082015181600001556020820151816001015560408201518160020160006101000a81548160ff02191690831515021790555060608201518160020160016101000a81548160ff02191690831515021790555060808201518160030190816106eb91906124f2565b5060a08201518160040155905050838173ffffffffffffffffffffffffffffffffffffffff167fa51d9237c2d7ba19fbae7c84e8cfec4ca9f0fe5a0867cd90d5e1bff9554de3008c8c8c8c60405161074694939291906125c4565b60405180910390a35080806001019150506105d8565b505050808060010191505061058e565b5050505050505050565b61077e611486565b6000600160003373ffffffffffffffffffffffffffffffffffffffff1673ffffffffffffffffffffffffffffffffffffffff16815260200190815260200160002060008481526020019081526020016000206040518060c001604052908160008201548152602001600182015481526020016002820160009054906101000a900460ff161515151581526020016002820160019054906101000a900460ff1615151515815260200160038201805461083590611fc6565b80601f016020809104026020016040519081016040528092919081815260200182805461086190611fc6565b80156108ae5780601f10610883576101008083540402835291602001916108ae565b820191906000526020600020905b81548152906001019060200180831161089157829003601f168201915b505050505081526020016004820154815250509050600081600001511480156108db575060008160200151145b80156108e957508060400151155b80156108f757508060600151155b8015610907575060008160a00151145b15610934576040518060600160405280600015158152602001600081526020016000815250915050610a8a565b426103848260a001516109479190611ed1565b111561097b576040518060600160405280600115158152602001826000015181526020018260200151815250915050610a8a565b8060400151801561098d575080606001515b156109ba576040518060600160405280600115158152602001600081526020016000815250915050610a8a565b806040015180156109cd57508060600151155b15610a03576040518060600160405280600083602001511115158152602001600081526020018260200151815250915050610a8a565b8060400151158015610a16575080606001515b15610a4b5760405180606001604052804283600001511115158152602001826000015181526020016000815250915050610a8a565b6040518060600160405280428360000151118015610a6d575060008360200151115b151581526020018260000151815260200182602001518152509150505b919050565b6000600160003373ffffffffffffffffffffffffffffffffffffffff1673ffffffffffffffffffffffffffffffffffffffff1681526020019081526020016000206000838152602001908152602001600020905060008160000154141580610afc57506000816001015414155b80610b1557508060020160009054906101000a900460ff165b80610b2e57508060020160019054906101000a900460ff165b610b6d576040517f08c379a0000000000000000000000000000000000000000000000000000000008152600401610b6490611e82565b60405180910390fd5b8060020160009054906101000a900460ff168015610b9a57508060020160019054906101000a900460ff16155b15610c03576000816001015411610be6576040517f08c379a0000000000000000000000000000000000000000000000000000000008152600401610bdd90612655565b60405180910390fd5b6001816001016000828254610bfb9190612675565b925050819055505b8060020160009054906101000a900460ff16158015610c3057508060020160019054906101000a900460ff165b15610c7c5742816000015411610c7b576040517f08c379a0000000000000000000000000000000000000000000000000000000008152600401610c72906126f5565b60405180910390fd5b5b8060020160009054906101000a900460ff16158015610caa57508060020160019054906101000a900460ff16155b15610cec57428160000154118015610cc6575060008160010154115b610ccf57600080fd5b6001816001016000828254610ce49190612675565b925050819055505b813373ffffffffffffffffffffffffffffffffffffffff167fd6227ad763b3ffa5ebbdfe821c7259f9da9c5db57f94e587e3012a785f66f3a983600001548460010154604051610d3d929190612715565b60405180910390a34281600401819055505050565b6001602052816000526040600020602052806000526040600020600091509150508060000154908060010154908060020160009054906101000a900460ff16908060020160019054906101000a900460ff1690806003018054610db490611fc6565b80601f0160208091040260200160405190810160405280929190818152602001828054610de090611fc6565b8015610e2d5780601f10610e0257610100808354040283529160200191610e2d565b820191906000526020600020905b815481529060010190602001808311610e1057829003601f168201915b5050505050908060040154905086565b606060008054906101000a900473ffffffffffffffffffffffffffffffffffffffff1673ffffffffffffffffffffffffffffffffffffffff163373ffffffffffffffffffffffffffffffffffffffff1614610ecd576040517f08c379a0000000000000000000000000000000000000000000000000000000008152600401610ec4906127b0565b60405180910390fd5b6000825111610f11576040517f08c379a0000000000000000000000000000000000000000000000000000000008152600401610f0890612842565b60405180910390fd5b6000825167ffffffffffffffff811115610f2e57610f2d611634565b5b604051908082528060200260200182016040528015610f6757816020015b610f54611486565b815260200190600190039081610f4c5790505b50905060005b83518110156112de576000600160008773ffffffffffffffffffffffffffffffffffffffff1673ffffffffffffffffffffffffffffffffffffffff1681526020019081526020016000206000868481518110610fcc57610fcb612317565b5b602002602001015181526020019081526020016000206040518060c001604052908160008201548152602001600182015481526020016002820160009054906101000a900460ff161515151581526020016002820160019054906101000a900460ff1615151515815260200160038201805461104790611fc6565b80601f016020809104026020016040519081016040528092919081815260200182805461107390611fc6565b80156110c05780601f10611095576101008083540402835291602001916110c0565b820191906000526020600020905b8154815290600101906020018083116110a357829003601f168201915b505050505081526020016004820154815250509050600081600001511480156110ed575060008160200151145b80156110fb57508060400151155b801561110957508060600151155b1561115257604051806060016040528060001515815260200160008152602001600081525083838151811061114157611140612317565b5b6020026020010181905250506112d1565b80604001518015611164575080606001515b156111ad57604051806060016040528060011515815260200160008152602001600081525083838151811061119c5761119b612317565b5b6020026020010181905250506112d1565b806040015180156111c057508060600151155b1561121257604051806060016040528060008360200151111515815260200160008152602001826020015181525083838151811061120157611200612317565b5b6020026020010181905250506112d1565b8060400151158015611225575080606001515b15611276576040518060600160405280428360000151111515815260200182600001518152602001600081525083838151811061126557611264612317565b5b6020026020010181905250506112d1565b6040518060600160405280428360000151118015611298575060008360200151115b151581526020018260000151815260200182602001518152508383815181106112c4576112c3612317565b5b6020026020010181905250505b8080600101915050610f6d565b508091505092915050565b60008054906101000a900473ffffffffffffffffffffffffffffffffffffffff1673ffffffffffffffffffffffffffffffffffffffff163373ffffffffffffffffffffffffffffffffffffffff1614611377576040517f08c379a000000000000000000000000000000000000000000000000000000000815260040161136e906128d4565b60405180910390fd5b600160008373ffffffffffffffffffffffffffffffffffffffff1673ffffffffffffffffffffffffffffffffffffffff168152602001908152602001600020600082815260200190815260200160002060008082016000905560018201600090556002820160006101000a81549060ff02191690556002820160016101000a81549060ff021916905560038201600061141091906114a9565b60048201600090555050808273ffffffffffffffffffffffffffffffffffffffff167fb11340c2209a7f3d45f1892c58bf80c7f85676ff4f232e0546efecdf65c64b9660405160405180910390a35050565b60008054906101000a900473ffffffffffffffffffffffffffffffffffffffff1681565b604051806060016040528060001515815260200160008152602001600081525090565b5080546114b590611fc6565b6000825580601f106114c757506114e6565b601f0160209004906000526020600020908101906114e591906114e9565b5b50565b5b808211156115025760008160009055506001016114ea565b5090565b6000604051905090565b600080fd5b600080fd5b6000819050919050565b61152d8161151a565b811461153857600080fd5b50565b60008135905061154a81611524565b92915050565b60006020828403121561156657611565611510565b5b60006115748482850161153b565b91505092915050565b600081519050919050565b600082825260208201905092915050565b60005b838110156115b757808201518184015260208101905061159c565b60008484015250505050565b6000601f19601f8301169050919050565b60006115df8261157d565b6115e98185611588565b93506115f9818560208601611599565b611602816115c3565b840191505092915050565b6000602082019050818103600083015261162781846115d4565b905092915050565b600080fd5b7f4e487b7100000000000000000000000000000000000000000000000000000000600052604160045260246000fd5b61166c826115c3565b810181811067ffffffffffffffff8211171561168b5761168a611634565b5b80604052505050565b600061169e611506565b90506116aa8282611663565b919050565b600067ffffffffffffffff8211156116ca576116c9611634565b5b602082029050602081019050919050565b600080fd5b600073ffffffffffffffffffffffffffffffffffffffff82169050919050565b600061170b826116e0565b9050919050565b61171b81611700565b811461172657600080fd5b50565b60008135905061173881611712565b92915050565b600061175161174c846116af565b611694565b90508083825260208201905060208402830185811115611774576117736116db565b5b835b8181101561179d57806117898882611729565b845260208401935050602081019050611776565b5050509392505050565b600082601f8301126117bc576117bb61162f565b5b81356117cc84826020860161173e565b91505092915050565b600067ffffffffffffffff8211156117f0576117ef611634565b5b602082029050602081019050919050565b600061181461180f846117d5565b611694565b90508083825260208201905060208402830185811115611837576118366116db565b5b835b81811015611860578061184c888261153b565b845260208401935050602081019050611839565b5050509392505050565b600082601f83011261187f5761187e61162f565b5b813561188f848260208601611801565b91505092915050565b60008115159050919050565b6118ad81611898565b81146118b857600080fd5b50565b6000813590506118ca816118a4565b92915050565b600067ffffffffffffffff8211156118eb576118ea611634565b5b602082029050602081019050919050565b600080fd5b600067ffffffffffffffff82111561191c5761191b611634565b5b611925826115c3565b9050602081019050919050565b82818337600083830152505050565b600061195461194f84611901565b611694565b9050828152602081018484840111156119705761196f6118fc565b5b61197b848285611932565b509392505050565b600082601f8301126119985761199761162f565b5b81356119a8848260208601611941565b91505092915050565b60006119c46119bf846118d0565b611694565b905080838252602082019050602084028301858111156119e7576119e66116db565b5b835b81811015611a2e57803567ffffffffffffffff811115611a0c57611a0b61162f565b5b808601611a198982611983565b855260208501945050506020810190506119e9565b5050509392505050565b600082601f830112611a4d57611a4c61162f565b5b8135611a5d8482602086016119b1565b91505092915050565b600080600080600080600060e0888a031215611a8557611a84611510565b5b600088013567ffffffffffffffff811115611aa357611aa2611515565b5b611aaf8a828b016117a7565b975050602088013567ffffffffffffffff811115611ad057611acf611515565b5b611adc8a828b0161186a565b9650506040611aed8a828b0161153b565b9550506060611afe8a828b0161153b565b9450506080611b0f8a828b016118bb565b93505060a0611b208a828b016118bb565b92505060c088013567ffffffffffffffff811115611b4157611b40611515565b5b611b4d8a828b01611a38565b91505092959891949750929550565b611b6581611898565b82525050565b611b748161151a565b82525050565b606082016000820151611b906000850182611b5c565b506020820151611ba36020850182611b6b565b506040820151611bb66040850182611b6b565b50505050565b6000606082019050611bd16000830184611b7a565b92915050565b60008060408385031215611bee57611bed611510565b5b6000611bfc85828601611729565b9250506020611c0d8582860161153b565b9150509250929050565b611c208161151a565b82525050565b611c2f81611898565b82525050565b600060c082019050611c4a6000830189611c17565b611c576020830188611c17565b611c646040830187611c26565b611c716060830186611c26565b8181036080830152611c8381856115d4565b9050611c9260a0830184611c17565b979650505050505050565b60008060408385031215611cb457611cb3611510565b5b6000611cc285828601611729565b925050602083013567ffffffffffffffff811115611ce357611ce2611515565b5b611cef8582860161186a565b9150509250929050565b600081519050919050565b600082825260208201905092915050565b6000819050602082019050919050565b606082016000820151611d3b6000850182611b5c565b506020820151611d4e6020850182611b6b565b506040820151611d616040850182611b6b565b50505050565b6000611d738383611d25565b60608301905092915050565b6000602082019050919050565b6000611d9782611cf9565b611da18185611d04565b9350611dac83611d15565b8060005b83811015611ddd578151611dc48882611d67565b9750611dcf83611d7f565b925050600181019050611db0565b5085935050505092915050565b60006020820190508181036000830152611e048184611d8c565b905092915050565b611e1581611700565b82525050565b6000602082019050611e306000830184611e0c565b92915050565b7f4b65696e2045696e7472616720676566756e64656e0000000000000000000000600082015250565b6000611e6c601583611588565b9150611e7782611e36565b602082019050919050565b60006020820190508181036000830152611e9b81611e5f565b9050919050565b7f4e487b7100000000000000000000000000000000000000000000000000000000600052601160045260246000fd5b6000611edc8261151a565b9150611ee78361151a565b9250828201905080821115611eff57611efe611ea2565b5b92915050565b7f49687265203135206d696e205a7567726966662073696e6420616267656c617560008201527f66656e0000000000000000000000000000000000000000000000000000000000602082015250565b6000611f61602383611588565b9150611f6c82611f05565b604082019050919050565b60006020820190508181036000830152611f9081611f54565b9050919050565b7f4e487b7100000000000000000000000000000000000000000000000000000000600052602260045260246000fd5b60006002820490506001821680611fde57607f821691505b602082108103611ff157611ff0611f97565b5b50919050565b7f4e7572206465722050617469656e74206b616e6e205a7567726966662067657760008201527f61656872656e0000000000000000000000000000000000000000000000000000602082015250565b6000612053602683611588565b915061205e82611ff7565b604082019050919050565b6000602082019050818103600083015261208281612046565b9050919050565b7f4d696e64657374656e732065696e2041727a74207565626572676562656e0000600082015250565b60006120bf601e83611588565b91506120ca82612089565b602082019050919050565b600060208201905081810360008301526120ee816120b2565b9050919050565b7f4d696e64657374656e732065696e20446f6b756d656e7420756562657267656260008201527f656e000000000000000000000000000000000000000000000000000000000000602082015250565b6000612151602283611588565b915061215c826120f5565b604082019050919050565b6000602082019050818103600083015261218081612144565b9050919050565b7f416e7a61686c204b65797320756e6420416e7a61686c20446f6b756d656e746560008201527f206d7573732070617373656e0000000000000000000000000000000000000000602082015250565b60006121e3602c83611588565b91506121ee82612187565b604082019050919050565b60006020820190508181036000830152612212816121d6565b9050919050565b7f416e67616265206d75737320696e20646572205a756b756e6674206c6965676560008201527f6e00000000000000000000000000000000000000000000000000000000000000602082015250565b6000612275602183611588565b915061228082612219565b604082019050919050565b600060208201905081810360008301526122a481612268565b9050919050565b7f5a75677269666665206d75657373656e203e30207365696e2100000000000000600082015250565b60006122e1601983611588565b91506122ec826122ab565b602082019050919050565b60006020820190508181036000830152612310816122d4565b9050919050565b7f4e487b7100000000000000000000000000000000000000000000000000000000600052603260045260246000fd5b60008190508160005260206000209050919050565b60006020601f8301049050919050565b600082821b905092915050565b6000600883026123a87fffffffffffffffffffffffffffffffffffffffffffffffffffffffffffffffff8261236b565b6123b2868361236b565b95508019841693508086168417925050509392505050565b6000819050919050565b60006123ef6123ea6123e58461151a565b6123ca565b61151a565b9050919050565b6000819050919050565b612409836123d4565b61241d612415826123f6565b848454612378565b825550505050565b600090565b612432612425565b61243d818484612400565b505050565b5b818110156124615761245660008261242a565b600181019050612443565b5050565b601f8211156124a65761247781612346565b6124808461235b565b8101602085101561248f578190505b6124a361249b8561235b565b830182612442565b50505b505050565b600082821c905092915050565b60006124c9600019846008026124ab565b1980831691505092915050565b60006124e283836124b8565b9150826002028217905092915050565b6124fb8261157d565b67ffffffffffffffff81111561251457612513611634565b5b61251e8254611fc6565b612529828285612465565b600060209050601f83116001811461255c576000841561254a578287015190505b61255485826124d6565b8655506125bc565b601f19841661256a86612346565b60005b828110156125925784890151825560018201915060208501945060208101905061256d565b868310156125af57848901516125ab601f8916826124b8565b8355505b6001600288020188555050505b505050505050565b60006080820190506125d96000830187611c17565b6125e66020830186611c17565b6125f36040830185611c26565b6126006060830184611c26565b95945050505050565b7f4b65696e65205a75677269666665207565627269670000000000000000000000600082015250565b600061263f601583611588565b915061264a82612609565b602082019050919050565b6000602082019050818103600083015261266e81612632565b9050919050565b60006126808261151a565b915061268b8361151a565b92508282039050818111156126a3576126a2611ea2565b5b92915050565b7f5a756772696666737a6569747261756d20616267656c617566656e0000000000600082015250565b60006126df601b83611588565b91506126ea826126a9565b602082019050919050565b6000602082019050818103600083015261270e816126d2565b9050919050565b600060408201905061272a6000830185611c17565b6127376020830184611c17565b9392505050565b7f4e7572206465722050617469656e74206461726620736568656e20776572205a60008201527f7567726966662068617400000000000000000000000000000000000000000000602082015250565b600061279a602a83611588565b91506127a58261273e565b604082019050919050565b600060208201905081810360008301526127c98161278d565b9050919050565b7f41727261792064657220446f6b756d656e7465206d757373206d696e6465737460008201527f656e73203120494420656e7468616c74656e0000000000000000000000000000602082015250565b600061282c603283611588565b9150612837826127d0565b604082019050919050565b6000602082019050818103600083015261285b8161281f565b9050919050565b7f4e75722050617469656e74206461726620426572656368746967756e67656e2060008201527f656e746665726e656e0000000000000000000000000000000000000000000000602082015250565b60006128be602983611588565b91506128c982612862565b604082019050919050565b600060208201905081810360008301526128ed816128b1565b905091905056fea2646970667358221220d25a74ed0c6a7ee2a508c2e8ec1afb3e77e4dcc31227b0f13dfd6e2bd16276c164736f6c634300081c0033a2646970667358221220547e1a1230d2b10f4630b4591bc42a1d70852f9d0a2991d0b7a1f81d66b5795564736f6c634300081c0033",
  "linkReferences": {},
  "deployedLinkReferences": {}
}