{
  "_format": "hh-sol-artifact-1",
  "contractName": "FabrikPatientenakte",
  "sourceName": "contracts/FabricOfPatientenakte.sol",
  "abi": [
    {
      "anonymous": false,
      "inputs": [
        {
          "indexed": true,
          "internalType": "address",
          "name": "_patient",
          "type": "address"
        },
        {
          "indexed": false,
          "internalType": "address",
          "name": "patientenakteContract",
          "type": "address"
        }
      ],
      "name": "PatientenakteErstellt",
      "type": "event"
    },
    {
      "inputs": [],
      "name": "createNewPatientenakte",
      "outputs": [],
      "stateMutability": "nonpayable",
      "type": "function"
    },
    {
      "inputs": [
        {
          "internalType": "address",
          "name": "_patient",
          "type": "address"
        }
      ],
      "name": "getPatientenakte",
      "outputs": [
        {
          "internalType": "address",
          "name": "",
          "type": "address"
        }
      ],
      "stateMutability": "view",
      "type": "function"
    },
    {
      "inputs": [
        {
          "internalType": "address",
          "name": "",
          "type": "address"
        }
      ],
      "name": "patientenakte",
      "outputs": [
        {
          "internalType": "address",
          "name": "",
          "type": "address"
        }
      ],
      "stateMutability": "view",
      "type": "function"
    }
  ],
  "bytecode": "0x6080604052348015600f57600080fd5b50612fc68061001f6000396000f3fe608060405234801561001057600080fd5b50600436106100415760003560e01c80636a94f85a14610046578063cd56258414610076578063d04b6f63146100a6575b600080fd5b610060600480360381019061005b919061045a565b6100b0565b60405161006d9190610496565b60405180910390f35b610090600480360381019061008b919061045a565b6101e4565b60405161009d9190610496565b60405180910390f35b6100ae610217565b005b60008073ffffffffffffffffffffffffffffffffffffffff166000808473ffffffffffffffffffffffffffffffffffffffff1673ffffffffffffffffffffffffffffffffffffffff16815260200190815260200160002060009054906101000a900473ffffffffffffffffffffffffffffffffffffffff1673ffffffffffffffffffffffffffffffffffffffff160361017e576040517f08c379a00000000000000000000000000000000000000000000000000000000081526004016101759061050e565b60405180910390fd5b6000808373ffffffffffffffffffffffffffffffffffffffff1673ffffffffffffffffffffffffffffffffffffffff16815260200190815260200160002060009054906101000a900473ffffffffffffffffffffffffffffffffffffffff169050919050565b60006020528060005260406000206000915054906101000a900473ffffffffffffffffffffffffffffffffffffffff1681565b600073ffffffffffffffffffffffffffffffffffffffff166000803373ffffffffffffffffffffffffffffffffffffffff1673ffffffffffffffffffffffffffffffffffffffff16815260200190815260200160002060009054906101000a900473ffffffffffffffffffffffffffffffffffffffff1673ffffffffffffffffffffffffffffffffffffffff16146102e4576040517f08c379a00000000000000000000000000000000000000000000000000000000081526004016102db906105a0565b60405180910390fd5b6000336040516102f3906103ea565b6102fd9190610496565b604051809103906000f080158015610319573d6000803e3d6000fd5b509050806000803373ffffffffffffffffffffffffffffffffffffffff1673ffffffffffffffffffffffffffffffffffffffff16815260200190815260200160002060006101000a81548173ffffffffffffffffffffffffffffffffffffffff021916908373ffffffffffffffffffffffffffffffffffffffff1602179055503373ffffffffffffffffffffffffffffffffffffffff167fdd9972484392cbb6146f94b9a7686540311d88d8878f5af2bf2fd0f9952e98f2826040516103df9190610496565b60405180910390a250565b6129d0806105c183390190565b600080fd5b600073ffffffffffffffffffffffffffffffffffffffff82169050919050565b6000610427826103fc565b9050919050565b6104378161041c565b811461044257600080fd5b50565b6000813590506104548161042e565b92915050565b6000602082840312156104705761046f6103f7565b5b600061047e84828501610445565b91505092915050565b6104908161041c565b82525050565b60006020820190506104ab6000830184610487565b92915050565b600082825260208201905092915050565b7f50617469656e7420686174206b65696e6520416b746500000000000000000000600082015250565b60006104f86016836104b1565b9150610503826104c2565b602082019050919050565b60006020820190508181036000830152610527816104eb565b9050919050565b7f50617469656e74656e616b74652069737420626572656974732065727374656c60008201527f6c74000000000000000000000000000000000000000000000000000000000000602082015250565b600061058a6022836104b1565b91506105958261052e565b604082019050919050565b600060208201905081810360008301526105b98161057d565b905091905056fe608060405234801561001057600080fd5b506040516129d03803806129d0833981810160405281019061003291906100db565b806000806101000a81548173ffffffffffffffffffffffffffffffffffffffff021916908373ffffffffffffffffffffffffffffffffffffffff16021790555050610108565b600080fd5b600073ffffffffffffffffffffffffffffffffffffffff82169050919050565b60006100a88261007d565b9050919050565b6100b88161009d565b81146100c357600080fd5b50565b6000815190506100d5816100af565b92915050565b6000602082840312156100f1576100f0610078565b5b60006100ff848285016100c6565b91505092915050565b6128b9806101176000396000f3fe608060405234801561001057600080fd5b50600436106100885760003560e01c806370c2b4191161005b57806370c2b419146101255780639c91c6e21461015a578063a99d83791461018a578063bd96bd20146101a657610088565b80630f91d9c11461008d5780630fcc0970146100bd5780633132ddfe146100d9578063644af5e114610109575b600080fd5b6100a760048036038101906100a291906114df565b6101c4565b6040516100b4919061159c565b60405180910390f35b6100d760048036038101906100d291906119f5565b61038c565b005b6100f360048036038101906100ee91906114df565b610776565b6040516101009190611b4b565b60405180910390f35b610123600480360381019061011e91906114df565b610a38565b005b61013f600480360381019061013a9190611b66565b610cfb565b60405161015196959493929190611bc4565b60405180910390f35b610174600480360381019061016f9190611c2c565b610de6565b6040516101819190611d79565b60405180910390f35b6101a4600480360381019061019f9190611b66565b611278565b005b6101ae6113f1565b6040516101bb9190611daa565b60405180910390f35b60606000600160003373ffffffffffffffffffffffffffffffffffffffff1673ffffffffffffffffffffffffffffffffffffffff168152602001908152602001600020600084815260200190815260200160002090506000816000015414158061023357506000816001015414155b8061024c57508060020160009054906101000a900460ff165b8061026557508060020160019054906101000a900460ff165b6102a4576040517f08c379a000000000000000000000000000000000000000000000000000000000815260040161029b90611e11565b60405180910390fd5b4261038482600401546102b79190611e60565b116102f7576040517f08c379a00000000000000000000000000000000000000000000000000000000081526004016102ee90611f06565b60405180910390fd5b80600301805461030690611f55565b80601f016020809104026020016040519081016040528092919081815260200182805461033290611f55565b801561037f5780601f106103545761010080835404028352916020019161037f565b820191906000526020600020905b81548152906001019060200180831161036257829003601f168201915b5050505050915050919050565b60008054906101000a900473ffffffffffffffffffffffffffffffffffffffff1673ffffffffffffffffffffffffffffffffffffffff163373ffffffffffffffffffffffffffffffffffffffff161461041a576040517f08c379a000000000000000000000000000000000000000000000000000000000815260040161041190611ff8565b60405180910390fd5b600087511161045e576040517f08c379a000000000000000000000000000000000000000000000000000000000815260040161045590612064565b60405180910390fd5b60008651116104a2576040517f08c379a0000000000000000000000000000000000000000000000000000000008152600401610499906120f6565b60405180910390fd5b80518651146104e6576040517f08c379a00000000000000000000000000000000000000000000000000000000081526004016104dd90612188565b60405180910390fd5b82156104f55760009450610538565b428511610537576040517f08c379a000000000000000000000000000000000000000000000000000000000815260040161052e9061221a565b60405180910390fd5b5b8115610547576000935061058b565b6000841161058a576040517f08c379a000000000000000000000000000000000000000000000000000000000815260040161058190612286565b60405180910390fd5b5b60005b865181101561076c5760008782815181106105ac576105ab6122a6565b5b6020026020010151905060008383815181106105cb576105ca6122a6565b5b6020026020010151905060005b8a5181101561075c5760008b82815181106105f6576105f56122a6565b5b602002602001015190506040518060c001604052808b81526020018a8152602001891515815260200188151581526020018481526020016000815250600160008373ffffffffffffffffffffffffffffffffffffffff1673ffffffffffffffffffffffffffffffffffffffff1681526020019081526020016000206000868152602001908152602001600020600082015181600001556020820151816001015560408201518160020160006101000a81548160ff02191690831515021790555060608201518160020160016101000a81548160ff02191690831515021790555060808201518160030190816106eb9190612481565b5060a08201518160040155905050838173ffffffffffffffffffffffffffffffffffffffff167fa51d9237c2d7ba19fbae7c84e8cfec4ca9f0fe5a0867cd90d5e1bff9554de3008c8c8c8c6040516107469493929190612553565b60405180910390a35080806001019150506105d8565b505050808060010191505061058e565b5050505050505050565b61077e611415565b6000600160003373ffffffffffffffffffffffffffffffffffffffff1673ffffffffffffffffffffffffffffffffffffffff16815260200190815260200160002060008481526020019081526020016000206040518060c001604052908160008201548152602001600182015481526020016002820160009054906101000a900460ff161515151581526020016002820160019054906101000a900460ff1615151515815260200160038201805461083590611f55565b80601f016020809104026020016040519081016040528092919081815260200182805461086190611f55565b80156108ae5780601f10610883576101008083540402835291602001916108ae565b820191906000526020600020905b81548152906001019060200180831161089157829003601f168201915b505050505081526020016004820154815250509050600081600001511480156108db575060008160200151145b80156108e957508060400151155b80156108f757508060600151155b15610924576040518060600160405280600015158152602001600081526020016000815250915050610a33565b80604001518015610936575080606001515b15610963576040518060600160405280600115158152602001600081526020016000815250915050610a33565b8060400151801561097657508060600151155b156109ac576040518060600160405280600083602001511115158152602001600081526020018260200151815250915050610a33565b80604001511580156109bf575080606001515b156109f45760405180606001604052804283600001511115158152602001826000015181526020016000815250915050610a33565b6040518060600160405280428360000151118015610a16575060008360200151115b151581526020018260000151815260200182602001518152509150505b919050565b6000600160003373ffffffffffffffffffffffffffffffffffffffff1673ffffffffffffffffffffffffffffffffffffffff1681526020019081526020016000206000838152602001908152602001600020905060008160000154141580610aa557506000816001015414155b80610abe57508060020160009054906101000a900460ff165b80610ad757508060020160019054906101000a900460ff165b610b16576040517f08c379a0000000000000000000000000000000000000000000000000000000008152600401610b0d90611e11565b60405180910390fd5b8060020160009054906101000a900460ff168015610b4357508060020160019054906101000a900460ff16155b15610bac576000816001015411610b8f576040517f08c379a0000000000000000000000000000000000000000000000000000000008152600401610b86906125e4565b60405180910390fd5b6001816001016000828254610ba49190612604565b925050819055505b8060020160009054906101000a900460ff16158015610bd957508060020160019054906101000a900460ff165b15610c255742816000015411610c24576040517f08c379a0000000000000000000000000000000000000000000000000000000008152600401610c1b90612684565b60405180910390fd5b5b8060020160009054906101000a900460ff16158015610c5357508060020160019054906101000a900460ff16155b15610c9557428160000154118015610c6f575060008160010154115b610c7857600080fd5b6001816001016000828254610c8d9190612604565b925050819055505b813373ffffffffffffffffffffffffffffffffffffffff167fd6227ad763b3ffa5ebbdfe821c7259f9da9c5db57f94e587e3012a785f66f3a983600001548460010154604051610ce69291906126a4565b60405180910390a34281600401819055505050565b6001602052816000526040600020602052806000526040600020600091509150508060000154908060010154908060020160009054906101000a900460ff16908060020160019054906101000a900460ff1690806003018054610d5d90611f55565b80601f0160208091040260200160405190810160405280929190818152602001828054610d8990611f55565b8015610dd65780601f10610dab57610100808354040283529160200191610dd6565b820191906000526020600020905b815481529060010190602001808311610db957829003601f168201915b5050505050908060040154905086565b606060008054906101000a900473ffffffffffffffffffffffffffffffffffffffff1673ffffffffffffffffffffffffffffffffffffffff163373ffffffffffffffffffffffffffffffffffffffff1614610e76576040517f08c379a0000000000000000000000000000000000000000000000000000000008152600401610e6d9061273f565b60405180910390fd5b6000825111610eba576040517f08c379a0000000000000000000000000000000000000000000000000000000008152600401610eb1906127d1565b60405180910390fd5b6000825167ffffffffffffffff811115610ed757610ed66115c3565b5b604051908082528060200260200182016040528015610f1057816020015b610efd611415565b815260200190600190039081610ef55790505b50905060005b835181101561126d576000600160008773ffffffffffffffffffffffffffffffffffffffff1673ffffffffffffffffffffffffffffffffffffffff16815260200190815260200160002060008381526020019081526020016000206040518060c001604052908160008201548152602001600182015481526020016002820160009054906101000a900460ff161515151581526020016002820160019054906101000a900460ff16151515158152602001600382018054610fd690611f55565b80601f016020809104026020016040519081016040528092919081815260200182805461100290611f55565b801561104f5780601f106110245761010080835404028352916020019161104f565b820191906000526020600020905b81548152906001019060200180831161103257829003601f168201915b5050505050815260200160048201548152505090506000816000015114801561107c575060008160200151145b801561108a57508060400151155b801561109857508060600151155b156110e15760405180606001604052806000151581526020016000815260200160008152508383815181106110d0576110cf6122a6565b5b602002602001018190525050611260565b806040015180156110f3575080606001515b1561113c57604051806060016040528060011515815260200160008152602001600081525083838151811061112b5761112a6122a6565b5b602002602001018190525050611260565b8060400151801561114f57508060600151155b156111a15760405180606001604052806000836020015111151581526020016000815260200182602001518152508383815181106111905761118f6122a6565b5b602002602001018190525050611260565b80604001511580156111b4575080606001515b1561120557604051806060016040528042836000015111151581526020018260000151815260200160008152508383815181106111f4576111f36122a6565b5b602002602001018190525050611260565b6040518060600160405280428360000151118015611227575060008360200151115b15158152602001826000015181526020018260200151815250838381518110611253576112526122a6565b5b6020026020010181905250505b8080600101915050610f16565b508091505092915050565b60008054906101000a900473ffffffffffffffffffffffffffffffffffffffff1673ffffffffffffffffffffffffffffffffffffffff163373ffffffffffffffffffffffffffffffffffffffff1614611306576040517f08c379a00000000000000000000000000000000000000000000000000000000081526004016112fd90612863565b60405180910390fd5b600160008373ffffffffffffffffffffffffffffffffffffffff1673ffffffffffffffffffffffffffffffffffffffff168152602001908152602001600020600082815260200190815260200160002060008082016000905560018201600090556002820160006101000a81549060ff02191690556002820160016101000a81549060ff021916905560038201600061139f9190611438565b60048201600090555050808273ffffffffffffffffffffffffffffffffffffffff167fb11340c2209a7f3d45f1892c58bf80c7f85676ff4f232e0546efecdf65c64b9660405160405180910390a35050565b60008054906101000a900473ffffffffffffffffffffffffffffffffffffffff1681565b604051806060016040528060001515815260200160008152602001600081525090565b50805461144490611f55565b6000825580601f106114565750611475565b601f0160209004906000526020600020908101906114749190611478565b5b50565b5b80821115611491576000816000905550600101611479565b5090565b6000604051905090565b600080fd5b600080fd5b6000819050919050565b6114bc816114a9565b81146114c757600080fd5b50565b6000813590506114d9816114b3565b92915050565b6000602082840312156114f5576114f461149f565b5b6000611503848285016114ca565b91505092915050565b600081519050919050565b600082825260208201905092915050565b60005b8381101561154657808201518184015260208101905061152b565b60008484015250505050565b6000601f19601f8301169050919050565b600061156e8261150c565b6115788185611517565b9350611588818560208601611528565b61159181611552565b840191505092915050565b600060208201905081810360008301526115b68184611563565b905092915050565b600080fd5b7f4e487b7100000000000000000000000000000000000000000000000000000000600052604160045260246000fd5b6115fb82611552565b810181811067ffffffffffffffff8211171561161a576116196115c3565b5b80604052505050565b600061162d611495565b905061163982826115f2565b919050565b600067ffffffffffffffff821115611659576116586115c3565b5b602082029050602081019050919050565b600080fd5b600073ffffffffffffffffffffffffffffffffffffffff82169050919050565b600061169a8261166f565b9050919050565b6116aa8161168f565b81146116b557600080fd5b50565b6000813590506116c7816116a1565b92915050565b60006116e06116db8461163e565b611623565b905080838252602082019050602084028301858111156117035761170261166a565b5b835b8181101561172c578061171888826116b8565b845260208401935050602081019050611705565b5050509392505050565b600082601f83011261174b5761174a6115be565b5b813561175b8482602086016116cd565b91505092915050565b600067ffffffffffffffff82111561177f5761177e6115c3565b5b602082029050602081019050919050565b60006117a361179e84611764565b611623565b905080838252602082019050602084028301858111156117c6576117c561166a565b5b835b818110156117ef57806117db88826114ca565b8452602084019350506020810190506117c8565b5050509392505050565b600082601f83011261180e5761180d6115be565b5b813561181e848260208601611790565b91505092915050565b60008115159050919050565b61183c81611827565b811461184757600080fd5b50565b60008135905061185981611833565b92915050565b600067ffffffffffffffff82111561187a576118796115c3565b5b602082029050602081019050919050565b600080fd5b600067ffffffffffffffff8211156118ab576118aa6115c3565b5b6118b482611552565b9050602081019050919050565b82818337600083830152505050565b60006118e36118de84611890565b611623565b9050828152602081018484840111156118ff576118fe61188b565b5b61190a8482856118c1565b509392505050565b600082601f830112611927576119266115be565b5b81356119378482602086016118d0565b91505092915050565b600061195361194e8461185f565b611623565b905080838252602082019050602084028301858111156119765761197561166a565b5b835b818110156119bd57803567ffffffffffffffff81111561199b5761199a6115be565b5b8086016119a88982611912565b85526020850194505050602081019050611978565b5050509392505050565b600082601f8301126119dc576119db6115be565b5b81356119ec848260208601611940565b91505092915050565b600080600080600080600060e0888a031215611a1457611a1361149f565b5b600088013567ffffffffffffffff811115611a3257611a316114a4565b5b611a3e8a828b01611736565b975050602088013567ffffffffffffffff811115611a5f57611a5e6114a4565b5b611a6b8a828b016117f9565b9650506040611a7c8a828b016114ca565b9550506060611a8d8a828b016114ca565b9450506080611a9e8a828b0161184a565b93505060a0611aaf8a828b0161184a565b92505060c088013567ffffffffffffffff811115611ad057611acf6114a4565b5b611adc8a828b016119c7565b91505092959891949750929550565b611af481611827565b82525050565b611b03816114a9565b82525050565b606082016000820151611b1f6000850182611aeb565b506020820151611b326020850182611afa565b506040820151611b456040850182611afa565b50505050565b6000606082019050611b606000830184611b09565b92915050565b60008060408385031215611b7d57611b7c61149f565b5b6000611b8b858286016116b8565b9250506020611b9c858286016114ca565b9150509250929050565b611baf816114a9565b82525050565b611bbe81611827565b82525050565b600060c082019050611bd96000830189611ba6565b611be66020830188611ba6565b611bf36040830187611bb5565b611c006060830186611bb5565b8181036080830152611c128185611563565b9050611c2160a0830184611ba6565b979650505050505050565b60008060408385031215611c4357611c4261149f565b5b6000611c51858286016116b8565b925050602083013567ffffffffffffffff811115611c7257611c716114a4565b5b611c7e858286016117f9565b9150509250929050565b600081519050919050565b600082825260208201905092915050565b6000819050602082019050919050565b606082016000820151611cca6000850182611aeb565b506020820151611cdd6020850182611afa565b506040820151611cf06040850182611afa565b50505050565b6000611d028383611cb4565b60608301905092915050565b6000602082019050919050565b6000611d2682611c88565b611d308185611c93565b9350611d3b83611ca4565b8060005b83811015611d6c578151611d538882611cf6565b9750611d5e83611d0e565b925050600181019050611d3f565b5085935050505092915050565b60006020820190508181036000830152611d938184611d1b565b905092915050565b611da48161168f565b82525050565b6000602082019050611dbf6000830184611d9b565b92915050565b7f4b65696e2045696e7472616720676566756e64656e0000000000000000000000600082015250565b6000611dfb601583611517565b9150611e0682611dc5565b602082019050919050565b60006020820190508181036000830152611e2a81611dee565b9050919050565b7f4e487b7100000000000000000000000000000000000000000000000000000000600052601160045260246000fd5b6000611e6b826114a9565b9150611e76836114a9565b9250828201905080821115611e8e57611e8d611e31565b5b92915050565b7f49687265203135206d696e205a7567726966662073696e6420616267656c617560008201527f66656e0000000000000000000000000000000000000000000000000000000000602082015250565b6000611ef0602383611517565b9150611efb82611e94565b604082019050919050565b60006020820190508181036000830152611f1f81611ee3565b9050919050565b7f4e487b7100000000000000000000000000000000000000000000000000000000600052602260045260246000fd5b60006002820490506001821680611f6d57607f821691505b602082108103611f8057611f7f611f26565b5b50919050565b7f4e7572206465722050617469656e74206b616e6e205a7567726966662067657760008201527f61656872656e0000000000000000000000000000000000000000000000000000602082015250565b6000611fe2602683611517565b9150611fed82611f86565b604082019050919050565b6000602082019050818103600083015261201181611fd5565b9050919050565b7f4d696e64657374656e732065696e2041727a74207565626572676562656e0000600082015250565b600061204e601e83611517565b915061205982612018565b602082019050919050565b6000602082019050818103600083015261207d81612041565b9050919050565b7f4d696e64657374656e732065696e20446f6b756d656e7420756562657267656260008201527f656e000000000000000000000000000000000000000000000000000000000000602082015250565b60006120e0602283611517565b91506120eb82612084565b604082019050919050565b6000602082019050818103600083015261210f816120d3565b9050919050565b7f416e7a61686c204b65797320756e6420416e7a61686c20446f6b756d656e746560008201527f206d7573732070617373656e0000000000000000000000000000000000000000602082015250565b6000612172602c83611517565b915061217d82612116565b604082019050919050565b600060208201905081810360008301526121a181612165565b9050919050565b7f416e67616265206d75737320696e20646572205a756b756e6674206c6965676560008201527f6e00000000000000000000000000000000000000000000000000000000000000602082015250565b6000612204602183611517565b915061220f826121a8565b604082019050919050565b60006020820190508181036000830152612233816121f7565b9050919050565b7f5a75677269666665206d75657373656e203e30207365696e2100000000000000600082015250565b6000612270601983611517565b915061227b8261223a565b602082019050919050565b6000602082019050818103600083015261229f81612263565b9050919050565b7f4e487b7100000000000000000000000000000000000000000000000000000000600052603260045260246000fd5b60008190508160005260206000209050919050565b60006020601f8301049050919050565b600082821b905092915050565b6000600883026123377fffffffffffffffffffffffffffffffffffffffffffffffffffffffffffffffff826122fa565b61234186836122fa565b95508019841693508086168417925050509392505050565b6000819050919050565b600061237e612379612374846114a9565b612359565b6114a9565b9050919050565b6000819050919050565b61239883612363565b6123ac6123a482612385565b848454612307565b825550505050565b600090565b6123c16123b4565b6123cc81848461238f565b505050565b5b818110156123f0576123e56000826123b9565b6001810190506123d2565b5050565b601f82111561243557612406816122d5565b61240f846122ea565b8101602085101561241e578190505b61243261242a856122ea565b8301826123d1565b50505b505050565b600082821c905092915050565b60006124586000198460080261243a565b1980831691505092915050565b60006124718383612447565b9150826002028217905092915050565b61248a8261150c565b67ffffffffffffffff8111156124a3576124a26115c3565b5b6124ad8254611f55565b6124b88282856123f4565b600060209050601f8311600181146124eb57600084156124d9578287015190505b6124e38582612465565b86555061254b565b601f1984166124f9866122d5565b60005b82811015612521578489015182556001820191506020850194506020810190506124fc565b8683101561253e578489015161253a601f891682612447565b8355505b6001600288020188555050505b505050505050565b60006080820190506125686000830187611ba6565b6125756020830186611ba6565b6125826040830185611bb5565b61258f6060830184611bb5565b95945050505050565b7f4b65696e65205a75677269666665207565627269670000000000000000000000600082015250565b60006125ce601583611517565b91506125d982612598565b602082019050919050565b600060208201905081810360008301526125fd816125c1565b9050919050565b600061260f826114a9565b915061261a836114a9565b925082820390508181111561263257612631611e31565b5b92915050565b7f5a756772696666737a6569747261756d20616267656c617566656e0000000000600082015250565b600061266e601b83611517565b915061267982612638565b602082019050919050565b6000602082019050818103600083015261269d81612661565b9050919050565b60006040820190506126b96000830185611ba6565b6126c66020830184611ba6565b9392505050565b7f4e7572206465722050617469656e74206461726620736568656e20776572205a60008201527f7567726966662068617400000000000000000000000000000000000000000000602082015250565b6000612729602a83611517565b9150612734826126cd565b604082019050919050565b600060208201905081810360008301526127588161271c565b9050919050565b7f41727261792064657220446f6b756d656e7465206d757373206d696e6465737460008201527f656e73203120494420656e7468616c74656e0000000000000000000000000000602082015250565b60006127bb603283611517565b91506127c68261275f565b604082019050919050565b600060208201905081810360008301526127ea816127ae565b9050919050565b7f4e75722050617469656e74206461726620426572656368746967756e67656e2060008201527f656e746665726e656e0000000000000000000000000000000000000000000000602082015250565b600061284d602983611517565b9150612858826127f1565b604082019050919050565b6000602082019050818103600083015261287c81612840565b905091905056fea264697066735822122058c0398887594c356b0bf785cd759d417f6420017da16f6954126e49f2cd80e564736f6c634300081c0033a264697066735822122082a993524eb434d7087e3ebcaec587d9245c8af096ed5f180ef5146d67c5a57864736f6c634300081c0033",
  "linkReferences": {},
  "deployedLinkReferences": {}
}