{
  "_format": "hh-sol-artifact-1",
  "contractName": "Patientenakte",
  "sourceName": "contracts/Patientenakte.sol",
  "abi": [
    {
      "inputs": [
        {
          "internalType": "address",
          "name": "_patient",
          "type": "address"
        }
      ],
      "stateMutability": "nonpayable",
      "type": "constructor"
    },
    {
      "anonymous": false,
      "inputs": [
        {
          "indexed": true,
          "internalType": "address",
          "name": "doctor",
          "type": "address"
        },
        {
          "indexed": true,
          "internalType": "uint256",
          "name": "documentID",
          "type": "uint256"
        },
        {
          "indexed": false,
          "internalType": "uint256",
          "name": "expiresAt",
          "type": "uint256"
        },
        {
          "indexed": false,
          "internalType": "uint256",
          "name": "remainingUses",
          "type": "uint256"
        },
        {
          "indexed": false,
          "internalType": "bool",
          "name": "expiresFlag",
          "type": "bool"
        },
        {
          "indexed": false,
          "internalType": "bool",
          "name": "usesFlag",
          "type": "bool"
        }
      ],
      "name": "AccessGranted",
      "type": "event"
    },
    {
      "anonymous": false,
      "inputs": [
        {
          "indexed": true,
          "internalType": "address",
          "name": "doctor",
          "type": "address"
        },
        {
          "indexed": true,
          "internalType": "uint256",
          "name": "documentID",
          "type": "uint256"
        }
      ],
      "name": "AccessRevoked",
      "type": "event"
    },
    {
      "anonymous": false,
      "inputs": [
        {
          "indexed": true,
          "internalType": "address",
          "name": "doctor",
          "type": "address"
        },
        {
          "indexed": true,
          "internalType": "uint256",
          "name": "documentID",
          "type": "uint256"
        },
        {
          "indexed": false,
          "internalType": "uint256",
          "name": "expiresAt",
          "type": "uint256"
        },
        {
          "indexed": false,
          "internalType": "uint256",
          "name": "remainingUses",
          "type": "uint256"
        }
      ],
      "name": "AccessUsed",
      "type": "event"
    },
    {
      "inputs": [
        {
          "internalType": "address",
          "name": "",
          "type": "address"
        },
        {
          "internalType": "uint256",
          "name": "",
          "type": "uint256"
        }
      ],
      "name": "accessList",
      "outputs": [
        {
          "internalType": "uint256",
          "name": "expiresAt",
          "type": "uint256"
        },
        {
          "internalType": "uint256",
          "name": "remainingUses",
          "type": "uint256"
        },
        {
          "internalType": "bool",
          "name": "expiresFlag",
          "type": "bool"
        },
        {
          "internalType": "bool",
          "name": "usesFlag",
          "type": "bool"
        },
        {
          "internalType": "string",
          "name": "encryptedKey",
          "type": "string"
        }
      ],
      "stateMutability": "view",
      "type": "function"
    },
    {
      "inputs": [
        {
          "internalType": "address",
          "name": "_doctor",
          "type": "address"
        },
        {
          "internalType": "uint256",
          "name": "_documentID",
          "type": "uint256"
        },
        {
          "internalType": "uint256",
          "name": "_expiresAt",
          "type": "uint256"
        },
        {
          "internalType": "uint256",
          "name": "_remainingUses",
          "type": "uint256"
        },
        {
          "internalType": "bool",
          "name": "_expiresFlag",
          "type": "bool"
        },
        {
          "internalType": "bool",
          "name": "_usesFlag",
          "type": "bool"
        },
        {
          "internalType": "string",
          "name": "_encryptedKey",
          "type": "string"
        }
      ],
      "name": "grantAccess",
      "outputs": [],
      "stateMutability": "nonpayable",
      "type": "function"
    },
    {
      "inputs": [
        {
          "internalType": "address[]",
          "name": "_doctors",
          "type": "address[]"
        },
        {
          "internalType": "uint256[]",
          "name": "_documentIDs",
          "type": "uint256[]"
        },
        {
          "internalType": "uint256",
          "name": "_expiresAt",
          "type": "uint256"
        },
        {
          "internalType": "uint256",
          "name": "_remainingUses",
          "type": "uint256"
        },
        {
          "internalType": "bool",
          "name": "_expiresFlag",
          "type": "bool"
        },
        {
          "internalType": "bool",
          "name": "_usesFlag",
          "type": "bool"
        },
        {
          "internalType": "string[]",
          "name": "_encryptedKeys",
          "type": "string[]"
        }
      ],
      "name": "grantMultiAccess",
      "outputs": [],
      "stateMutability": "nonpayable",
      "type": "function"
    },
    {
      "inputs": [
        {
          "internalType": "uint256",
          "name": "_documentID",
          "type": "uint256"
        }
      ],
      "name": "hasAccess",
      "outputs": [
        {
          "internalType": "bool",
          "name": "",
          "type": "bool"
        }
      ],
      "stateMutability": "nonpayable",
      "type": "function"
    },
    {
      "inputs": [],
      "name": "patient",
      "outputs": [
        {
          "internalType": "address",
          "name": "",
          "type": "address"
        }
      ],
      "stateMutability": "view",
      "type": "function"
    },
    {
      "inputs": [
        {
          "internalType": "address",
          "name": "_doctor",
          "type": "address"
        },
        {
          "internalType": "uint256",
          "name": "_documentID",
          "type": "uint256"
        }
      ],
      "name": "revokeAccess",
      "outputs": [],
      "stateMutability": "nonpayable",
      "type": "function"
    },
    {
      "inputs": [
        {
          "internalType": "uint256",
          "name": "_documentID",
          "type": "uint256"
        }
      ],
      "name": "useAccess",
      "outputs": [
        {
          "internalType": "string",
          "name": "",
          "type": "string"
        }
      ],
      "stateMutability": "nonpayable",
      "type": "function"
    }
  ],
  "bytecode": "0x608060405234801561001057600080fd5b5060405161227a38038061227a833981810160405281019061003291906100db565b806000806101000a81548173ffffffffffffffffffffffffffffffffffffffff021916908373ffffffffffffffffffffffffffffffffffffffff16021790555050610108565b600080fd5b600073ffffffffffffffffffffffffffffffffffffffff82169050919050565b60006100a88261007d565b9050919050565b6100b88161009d565b81146100c357600080fd5b50565b6000815190506100d5816100af565b92915050565b6000602082840312156100f1576100f0610078565b5b60006100ff848285016100c6565b91505092915050565b612163806101176000396000f3fe608060405234801561001057600080fd5b506004361061007d5760003560e01c806376adc5c81161005b57806376adc5c814610102578063a99d83791461011e578063bd96bd201461013a578063e6a214c6146101585761007d565b80630fcc0970146100825780633132ddfe1461009e57806370c2b419146100ce575b600080fd5b61009c6004803603810190610097919061142b565b610188565b005b6100b860048036038101906100b39190611521565b610561565b6040516100c5919061155d565b60405180910390f35b6100e860048036038101906100e39190611578565b610770565b6040516100f9959493929190611646565b60405180910390f35b61011c600480360381019061011791906116a0565b610855565b005b61013860048036038101906101339190611578565b610aae565b005b610142610c1f565b60405161014f919061176d565b60405180910390f35b610172600480360381019061016d9190611521565b610c43565b60405161017f9190611788565b60405180910390f35b60008054906101000a900473ffffffffffffffffffffffffffffffffffffffff1673ffffffffffffffffffffffffffffffffffffffff163373ffffffffffffffffffffffffffffffffffffffff1614610216576040517f08c379a000000000000000000000000000000000000000000000000000000000815260040161020d9061181c565b60405180910390fd5b600087511161025a576040517f08c379a000000000000000000000000000000000000000000000000000000000815260040161025190611888565b60405180910390fd5b600086511161029e576040517f08c379a00000000000000000000000000000000000000000000000000000000081526004016102959061191a565b60405180910390fd5b80518651146102e2576040517f08c379a00000000000000000000000000000000000000000000000000000000081526004016102d9906119ac565b60405180910390fd5b82156102f15760009450610334565b428511610333576040517f08c379a000000000000000000000000000000000000000000000000000000000815260040161032a90611a3e565b60405180910390fd5b5b81156103435760009350610387565b60008411610386576040517f08c379a000000000000000000000000000000000000000000000000000000000815260040161037d90611aaa565b60405180910390fd5b5b60005b86518110156105575760008782815181106103a8576103a7611aca565b5b6020026020010151905060008383815181106103c7576103c6611aca565b5b6020026020010151905060005b8a518110156105475760008b82815181106103f2576103f1611aca565b5b602002602001015190506040518060a001604052808b81526020018a81526020018915158152602001881515815260200184815250600160008373ffffffffffffffffffffffffffffffffffffffff1673ffffffffffffffffffffffffffffffffffffffff1681526020019081526020016000206000868152602001908152602001600020600082015181600001556020820151816001015560408201518160020160006101000a81548160ff02191690831515021790555060608201518160020160016101000a81548160ff02191690831515021790555060808201518160030190816104e09190611d05565b50905050838173ffffffffffffffffffffffffffffffffffffffff167fa51d9237c2d7ba19fbae7c84e8cfec4ca9f0fe5a0867cd90d5e1bff9554de3008c8c8c8c6040516105319493929190611dd7565b60405180910390a35080806001019150506103d4565b505050808060010191505061038a565b5050505050505050565b600080600160003373ffffffffffffffffffffffffffffffffffffffff1673ffffffffffffffffffffffffffffffffffffffff16815260200190815260200160002060008481526020019081526020016000206040518060a001604052908160008201548152602001600182015481526020016002820160009054906101000a900460ff161515151581526020016002820160019054906101000a900460ff1615151515815260200160038201805461061990611b28565b80601f016020809104026020016040519081016040528092919081815260200182805461064590611b28565b80156106925780601f1061066757610100808354040283529160200191610692565b820191906000526020600020905b81548152906001019060200180831161067557829003601f168201915b5050505050815250509050600081600001511480156106b5575060008160200151145b80156106c357508060400151155b80156106d157508060600151155b156106e057600091505061076b565b806040015180156106f2575080606001515b1561070157600191505061076b565b8060400151801561071457508060600151155b1561072957600081602001511191505061076b565b806040015115801561073c575080606001515b15610750574281600001511191505061076b565b428160000151118015610767575060008160200151115b9150505b919050565b6001602052816000526040600020602052806000526040600020600091509150508060000154908060010154908060020160009054906101000a900460ff16908060020160019054906101000a900460ff16908060030180546107d290611b28565b80601f01602080910402602001604051908101604052809291908181526020018280546107fe90611b28565b801561084b5780601f106108205761010080835404028352916020019161084b565b820191906000526020600020905b81548152906001019060200180831161082e57829003601f168201915b5050505050905085565b60008054906101000a900473ffffffffffffffffffffffffffffffffffffffff1673ffffffffffffffffffffffffffffffffffffffff163373ffffffffffffffffffffffffffffffffffffffff16146108e3576040517f08c379a00000000000000000000000000000000000000000000000000000000081526004016108da9061181c565b60405180910390fd5b428511610925576040517f08c379a000000000000000000000000000000000000000000000000000000000815260040161091c90611e68565b60405180910390fd5b60008411610968576040517f08c379a000000000000000000000000000000000000000000000000000000000815260040161095f90611ed4565b60405180910390fd5b6040518060a001604052808681526020018581526020018415158152602001831515815260200182815250600160008973ffffffffffffffffffffffffffffffffffffffff1673ffffffffffffffffffffffffffffffffffffffff1681526020019081526020016000206000888152602001908152602001600020600082015181600001556020820151816001015560408201518160020160006101000a81548160ff02191690831515021790555060608201518160020160016101000a81548160ff0219169083151502179055506080820151816003019081610a4c9190611d05565b50905050858773ffffffffffffffffffffffffffffffffffffffff167fa51d9237c2d7ba19fbae7c84e8cfec4ca9f0fe5a0867cd90d5e1bff9554de30087878787604051610a9d9493929190611dd7565b60405180910390a350505050505050565b60008054906101000a900473ffffffffffffffffffffffffffffffffffffffff1673ffffffffffffffffffffffffffffffffffffffff163373ffffffffffffffffffffffffffffffffffffffff1614610b3c576040517f08c379a0000000000000000000000000000000000000000000000000000000008152600401610b3390611f66565b60405180910390fd5b600160008373ffffffffffffffffffffffffffffffffffffffff1673ffffffffffffffffffffffffffffffffffffffff168152602001908152602001600020600082815260200190815260200160002060008082016000905560018201600090556002820160006101000a81549060ff02191690556002820160016101000a81549060ff0219169055600382016000610bd59190610f3c565b5050808273ffffffffffffffffffffffffffffffffffffffff167fb11340c2209a7f3d45f1892c58bf80c7f85676ff4f232e0546efecdf65c64b9660405160405180910390a35050565b60008054906101000a900473ffffffffffffffffffffffffffffffffffffffff1681565b60606000600160003373ffffffffffffffffffffffffffffffffffffffff1673ffffffffffffffffffffffffffffffffffffffff168152602001908152602001600020600084815260200190815260200160002090506000816000015414158015610cb357506000816001015414155b8015610cce57508060020160009054906101000a900460ff16155b8015610ce957508060020160019054906101000a900460ff16155b610d28576040517f08c379a0000000000000000000000000000000000000000000000000000000008152600401610d1f90611fd2565b60405180910390fd5b8060020160009054906101000a900460ff168015610d5557508060020160019054906101000a900460ff16155b15610dbe576000816001015411610da1576040517f08c379a0000000000000000000000000000000000000000000000000000000008152600401610d989061203e565b60405180910390fd5b6001816001016000828254610db6919061208d565b925050819055505b8060020160009054906101000a900460ff16158015610deb57508060020160019054906101000a900460ff165b15610e375742816000015411610e36576040517f08c379a0000000000000000000000000000000000000000000000000000000008152600401610e2d9061210d565b60405180910390fd5b5b8060020160009054906101000a900460ff16158015610e6557508060020160019054906101000a900460ff16155b15610ea757428160000154118015610e81575060008160010154115b610e8a57600080fd5b6001816001016000828254610e9f919061208d565b925050819055505b806003018054610eb690611b28565b80601f0160208091040260200160405190810160405280929190818152602001828054610ee290611b28565b8015610f2f5780601f10610f0457610100808354040283529160200191610f2f565b820191906000526020600020905b815481529060010190602001808311610f1257829003601f168201915b5050505050915050919050565b508054610f4890611b28565b6000825580601f10610f5a5750610f79565b601f016020900490600052602060002090810190610f789190610f7c565b5b50565b5b80821115610f95576000816000905550600101610f7d565b5090565b6000604051905090565b600080fd5b600080fd5b600080fd5b6000601f19601f8301169050919050565b7f4e487b7100000000000000000000000000000000000000000000000000000000600052604160045260246000fd5b610ffb82610fb2565b810181811067ffffffffffffffff8211171561101a57611019610fc3565b5b80604052505050565b600061102d610f99565b90506110398282610ff2565b919050565b600067ffffffffffffffff82111561105957611058610fc3565b5b602082029050602081019050919050565b600080fd5b600073ffffffffffffffffffffffffffffffffffffffff82169050919050565b600061109a8261106f565b9050919050565b6110aa8161108f565b81146110b557600080fd5b50565b6000813590506110c7816110a1565b92915050565b60006110e06110db8461103e565b611023565b905080838252602082019050602084028301858111156111035761110261106a565b5b835b8181101561112c578061111888826110b8565b845260208401935050602081019050611105565b5050509392505050565b600082601f83011261114b5761114a610fad565b5b813561115b8482602086016110cd565b91505092915050565b600067ffffffffffffffff82111561117f5761117e610fc3565b5b602082029050602081019050919050565b6000819050919050565b6111a381611190565b81146111ae57600080fd5b50565b6000813590506111c08161119a565b92915050565b60006111d96111d484611164565b611023565b905080838252602082019050602084028301858111156111fc576111fb61106a565b5b835b81811015611225578061121188826111b1565b8452602084019350506020810190506111fe565b5050509392505050565b600082601f83011261124457611243610fad565b5b81356112548482602086016111c6565b91505092915050565b60008115159050919050565b6112728161125d565b811461127d57600080fd5b50565b60008135905061128f81611269565b92915050565b600067ffffffffffffffff8211156112b0576112af610fc3565b5b602082029050602081019050919050565b600080fd5b600067ffffffffffffffff8211156112e1576112e0610fc3565b5b6112ea82610fb2565b9050602081019050919050565b82818337600083830152505050565b6000611319611314846112c6565b611023565b905082815260208101848484011115611335576113346112c1565b5b6113408482856112f7565b509392505050565b600082601f83011261135d5761135c610fad565b5b813561136d848260208601611306565b91505092915050565b600061138961138484611295565b611023565b905080838252602082019050602084028301858111156113ac576113ab61106a565b5b835b818110156113f357803567ffffffffffffffff8111156113d1576113d0610fad565b5b8086016113de8982611348565b855260208501945050506020810190506113ae565b5050509392505050565b600082601f83011261141257611411610fad565b5b8135611422848260208601611376565b91505092915050565b600080600080600080600060e0888a03121561144a57611449610fa3565b5b600088013567ffffffffffffffff81111561146857611467610fa8565b5b6114748a828b01611136565b975050602088013567ffffffffffffffff81111561149557611494610fa8565b5b6114a18a828b0161122f565b96505060406114b28a828b016111b1565b95505060606114c38a828b016111b1565b94505060806114d48a828b01611280565b93505060a06114e58a828b01611280565b92505060c088013567ffffffffffffffff81111561150657611505610fa8565b5b6115128a828b016113fd565b91505092959891949750929550565b60006020828403121561153757611536610fa3565b5b6000611545848285016111b1565b91505092915050565b6115578161125d565b82525050565b6000602082019050611572600083018461154e565b92915050565b6000806040838503121561158f5761158e610fa3565b5b600061159d858286016110b8565b92505060206115ae858286016111b1565b9150509250929050565b6115c181611190565b82525050565b600081519050919050565b600082825260208201905092915050565b60005b838110156116015780820151818401526020810190506115e6565b60008484015250505050565b6000611618826115c7565b61162281856115d2565b93506116328185602086016115e3565b61163b81610fb2565b840191505092915050565b600060a08201905061165b60008301886115b8565b61166860208301876115b8565b611675604083018661154e565b611682606083018561154e565b8181036080830152611694818461160d565b90509695505050505050565b600080600080600080600060e0888a0312156116bf576116be610fa3565b5b60006116cd8a828b016110b8565b97505060206116de8a828b016111b1565b96505060406116ef8a828b016111b1565b95505060606117008a828b016111b1565b94505060806117118a828b01611280565b93505060a06117228a828b01611280565b92505060c088013567ffffffffffffffff81111561174357611742610fa8565b5b61174f8a828b01611348565b91505092959891949750929550565b6117678161108f565b82525050565b6000602082019050611782600083018461175e565b92915050565b600060208201905081810360008301526117a2818461160d565b905092915050565b7f4e7572206465722050617469656e74206b616e6e205a7567726966662067657760008201527f61656872656e0000000000000000000000000000000000000000000000000000602082015250565b60006118066026836115d2565b9150611811826117aa565b604082019050919050565b60006020820190508181036000830152611835816117f9565b9050919050565b7f4d696e64657374656e732065696e2041727a74207565626572676562656e0000600082015250565b6000611872601e836115d2565b915061187d8261183c565b602082019050919050565b600060208201905081810360008301526118a181611865565b9050919050565b7f4d696e64657374656e732065696e20446f6b756d656e7420756562657267656260008201527f656e000000000000000000000000000000000000000000000000000000000000602082015250565b60006119046022836115d2565b915061190f826118a8565b604082019050919050565b60006020820190508181036000830152611933816118f7565b9050919050565b7f416e7a61686c204b65797320756e6420416e7a61686c20446f6b756d656e746560008201527f206d7573732070617373656e0000000000000000000000000000000000000000602082015250565b6000611996602c836115d2565b91506119a18261193a565b604082019050919050565b600060208201905081810360008301526119c581611989565b9050919050565b7f416e67616265206d75737320696e20646572205a756b756e6674206c6965676560008201527f6e00000000000000000000000000000000000000000000000000000000000000602082015250565b6000611a286021836115d2565b9150611a33826119cc565b604082019050919050565b60006020820190508181036000830152611a5781611a1b565b9050919050565b7f5a75677269666665206d75657373656e203e30207365696e2100000000000000600082015250565b6000611a946019836115d2565b9150611a9f82611a5e565b602082019050919050565b60006020820190508181036000830152611ac381611a87565b9050919050565b7f4e487b7100000000000000000000000000000000000000000000000000000000600052603260045260246000fd5b7f4e487b7100000000000000000000000000000000000000000000000000000000600052602260045260246000fd5b60006002820490506001821680611b4057607f821691505b602082108103611b5357611b52611af9565b5b50919050565b60008190508160005260206000209050919050565b60006020601f8301049050919050565b600082821b905092915050565b600060088302611bbb7fffffffffffffffffffffffffffffffffffffffffffffffffffffffffffffffff82611b7e565b611bc58683611b7e565b95508019841693508086168417925050509392505050565b6000819050919050565b6000611c02611bfd611bf884611190565b611bdd565b611190565b9050919050565b6000819050919050565b611c1c83611be7565b611c30611c2882611c09565b848454611b8b565b825550505050565b600090565b611c45611c38565b611c50818484611c13565b505050565b5b81811015611c7457611c69600082611c3d565b600181019050611c56565b5050565b601f821115611cb957611c8a81611b59565b611c9384611b6e565b81016020851015611ca2578190505b611cb6611cae85611b6e565b830182611c55565b50505b505050565b600082821c905092915050565b6000611cdc60001984600802611cbe565b1980831691505092915050565b6000611cf58383611ccb565b9150826002028217905092915050565b611d0e826115c7565b67ffffffffffffffff811115611d2757611d26610fc3565b5b611d318254611b28565b611d3c828285611c78565b600060209050601f831160018114611d6f5760008415611d5d578287015190505b611d678582611ce9565b865550611dcf565b601f198416611d7d86611b59565b60005b82811015611da557848901518255600182019150602085019450602081019050611d80565b86831015611dc25784890151611dbe601f891682611ccb565b8355505b6001600288020188555050505b505050505050565b6000608082019050611dec60008301876115b8565b611df960208301866115b8565b611e06604083018561154e565b611e13606083018461154e565b95945050505050565b7f4d75737320696e20646572205a756b756e6674206c696567656e000000000000600082015250565b6000611e52601a836115d2565b9150611e5d82611e1c565b602082019050919050565b60006020820190508181036000830152611e8181611e45565b9050919050565b7f5a75677269666665206d75657373656e203e2030207365696e00000000000000600082015250565b6000611ebe6019836115d2565b9150611ec982611e88565b602082019050919050565b60006020820190508181036000830152611eed81611eb1565b9050919050565b7f4e75722050617469656e74206461726620426572656368746967756e67656e2060008201527f656e746665726e656e0000000000000000000000000000000000000000000000602082015250565b6000611f506029836115d2565b9150611f5b82611ef4565b604082019050919050565b60006020820190508181036000830152611f7f81611f43565b9050919050565b7f4b65696e2045696e7472616720676566756e64656e0000000000000000000000600082015250565b6000611fbc6015836115d2565b9150611fc782611f86565b602082019050919050565b60006020820190508181036000830152611feb81611faf565b9050919050565b7f4b65696e65205a75677269666665207565627269670000000000000000000000600082015250565b60006120286015836115d2565b915061203382611ff2565b602082019050919050565b600060208201905081810360008301526120578161201b565b9050919050565b7f4e487b7100000000000000000000000000000000000000000000000000000000600052601160045260246000fd5b600061209882611190565b91506120a383611190565b92508282039050818111156120bb576120ba61205e565b5b92915050565b7f5a756772696666737a6569747261756d20616267656c617566656e0000000000600082015250565b60006120f7601b836115d2565b9150612102826120c1565b602082019050919050565b60006020820190508181036000830152612126816120ea565b905091905056fea2646970667358221220e04908d6116fec3e3faba62325783677efbdc729a40d803a4f9f7be47e04d9a864736f6c634300081c0033",
  "linkReferences": {},
  "deployedLinkReferences": {}
}