{
  "_format": "hh-sol-artifact-1",
  "contractName": "Patientenakte",
  "sourceName": "contracts/Patientenakte.sol",
  "abi": [
    {
      "inputs": [
        {
          "internalType": "address",
          "name": "_patient",
          "type": "address"
        }
      ],
      "stateMutability": "nonpayable",
      "type": "constructor"
    },
    {
      "anonymous": false,
      "inputs": [
        {
          "indexed": true,
          "internalType": "address",
          "name": "doctor",
          "type": "address"
        },
        {
          "indexed": true,
          "internalType": "uint256",
          "name": "documentID",
          "type": "uint256"
        },
        {
          "indexed": false,
          "internalType": "uint256",
          "name": "expiresAt",
          "type": "uint256"
        },
        {
          "indexed": false,
          "internalType": "uint256",
          "name": "remainingUses",
          "type": "uint256"
        },
        {
          "indexed": false,
          "internalType": "bool",
          "name": "dontExpiresFlag",
          "type": "bool"
        },
        {
          "indexed": false,
          "internalType": "bool",
          "name": "noUseLimitFlag",
          "type": "bool"
        }
      ],
      "name": "AccessGranted",
      "type": "event"
    },
    {
      "anonymous": false,
      "inputs": [
        {
          "indexed": true,
          "internalType": "address",
          "name": "doctor",
          "type": "address"
        },
        {
          "indexed": true,
          "internalType": "uint256",
          "name": "documentID",
          "type": "uint256"
        }
      ],
      "name": "AccessRevoked",
      "type": "event"
    },
    {
      "anonymous": false,
      "inputs": [
        {
          "indexed": true,
          "internalType": "address",
          "name": "doctor",
          "type": "address"
        },
        {
          "indexed": true,
          "internalType": "uint256",
          "name": "documentID",
          "type": "uint256"
        },
        {
          "indexed": false,
          "internalType": "uint256",
          "name": "expiresAt",
          "type": "uint256"
        },
        {
          "indexed": false,
          "internalType": "uint256",
          "name": "remainingUses",
          "type": "uint256"
        }
      ],
      "name": "AccessUsed",
      "type": "event"
    },
    {
      "inputs": [
        {
          "internalType": "address",
          "name": "",
          "type": "address"
        },
        {
          "internalType": "uint256",
          "name": "",
          "type": "uint256"
        }
      ],
      "name": "accessList",
      "outputs": [
        {
          "internalType": "uint256",
          "name": "expiresAt",
          "type": "uint256"
        },
        {
          "internalType": "uint256",
          "name": "remainingUses",
          "type": "uint256"
        },
        {
          "internalType": "bool",
          "name": "dontExpiresFlag",
          "type": "bool"
        },
        {
          "internalType": "bool",
          "name": "noUseLimitFlag",
          "type": "bool"
        },
        {
          "internalType": "string",
          "name": "encryptedKey",
          "type": "string"
        },
        {
          "internalType": "uint256",
          "name": "lastUseAccess",
          "type": "uint256"
        }
      ],
      "stateMutability": "view",
      "type": "function"
    },
    {
      "inputs": [
        {
          "internalType": "address[]",
          "name": "_doctors",
          "type": "address[]"
        },
        {
          "internalType": "uint256[]",
          "name": "_documentIDs",
          "type": "uint256[]"
        },
        {
          "internalType": "uint256",
          "name": "_expiresAt",
          "type": "uint256"
        },
        {
          "internalType": "uint256",
          "name": "_remainingUses",
          "type": "uint256"
        },
        {
          "internalType": "bool",
          "name": "_dontExpiresFlag",
          "type": "bool"
        },
        {
          "internalType": "bool",
          "name": "_noUseLimitFlag",
          "type": "bool"
        },
        {
          "internalType": "string[]",
          "name": "_encryptedKeys",
          "type": "string[]"
        }
      ],
      "name": "grantMultiAccess",
      "outputs": [],
      "stateMutability": "nonpayable",
      "type": "function"
    },
    {
      "inputs": [
        {
          "internalType": "uint256",
          "name": "_documentID",
          "type": "uint256"
        }
      ],
      "name": "hasAccess",
      "outputs": [
        {
          "components": [
            {
              "internalType": "bool",
              "name": "access",
              "type": "bool"
            },
            {
              "internalType": "uint256",
              "name": "expiresAt",
              "type": "uint256"
            },
            {
              "internalType": "uint256",
              "name": "remainingUses",
              "type": "uint256"
            }
          ],
          "internalType": "struct Patientenakte.AccessInfo",
          "name": "",
          "type": "tuple"
        }
      ],
      "stateMutability": "view",
      "type": "function"
    },
    {
      "inputs": [],
      "name": "patient",
      "outputs": [
        {
          "internalType": "address",
          "name": "",
          "type": "address"
        }
      ],
      "stateMutability": "view",
      "type": "function"
    },
    {
      "inputs": [
        {
          "internalType": "address",
          "name": "_doctor",
          "type": "address"
        },
        {
          "internalType": "uint256",
          "name": "_documentID",
          "type": "uint256"
        }
      ],
      "name": "revokeAccess",
      "outputs": [],
      "stateMutability": "nonpayable",
      "type": "function"
    },
    {
      "inputs": [
        {
          "internalType": "uint256",
          "name": "_documentID",
          "type": "uint256"
        }
      ],
      "name": "useAccessRead",
      "outputs": [
        {
          "internalType": "string",
          "name": "",
          "type": "string"
        }
      ],
      "stateMutability": "view",
      "type": "function"
    },
    {
      "inputs": [
        {
          "internalType": "uint256",
          "name": "_documentID",
          "type": "uint256"
        }
      ],
      "name": "useAccessWrite",
      "outputs": [],
      "stateMutability": "nonpayable",
      "type": "function"
    },
    {
      "inputs": [
        {
          "internalType": "address",
          "name": "_doctor",
          "type": "address"
        },
        {
          "internalType": "uint256[]",
          "name": "_documentID",
          "type": "uint256[]"
        }
      ],
      "name": "whoHasAccess",
      "outputs": [
        {
          "components": [
            {
              "internalType": "bool",
              "name": "access",
              "type": "bool"
            },
            {
              "internalType": "uint256",
              "name": "expiresAt",
              "type": "uint256"
            },
            {
              "internalType": "uint256",
              "name": "remainingUses",
              "type": "uint256"
            }
          ],
          "internalType": "struct Patientenakte.AccessInfo[]",
          "name": "",
          "type": "tuple[]"
        }
      ],
      "stateMutability": "view",
      "type": "function"
    }
  ],
  "bytecode": "0x608060405234801561001057600080fd5b506040516129ea3803806129ea833981810160405281019061003291906100db565b806000806101000a81548173ffffffffffffffffffffffffffffffffffffffff021916908373ffffffffffffffffffffffffffffffffffffffff16021790555050610108565b600080fd5b600073ffffffffffffffffffffffffffffffffffffffff82169050919050565b60006100a88261007d565b9050919050565b6100b88161009d565b81146100c357600080fd5b50565b6000815190506100d5816100af565b92915050565b6000602082840312156100f1576100f0610078565b5b60006100ff848285016100c6565b91505092915050565b6128d3806101176000396000f3fe608060405234801561001057600080fd5b50600436106100885760003560e01c806370c2b4191161005b57806370c2b419146101255780639c91c6e21461015a578063a99d83791461018a578063bd96bd20146101a657610088565b80630f91d9c11461008d5780630fcc0970146100bd5780633132ddfe146100d9578063644af5e114610109575b600080fd5b6100a760048036038101906100a291906114f9565b6101c4565b6040516100b491906115b6565b60405180910390f35b6100d760048036038101906100d29190611a0f565b61038c565b005b6100f360048036038101906100ee91906114f9565b610776565b6040516101009190611b65565b60405180910390f35b610123600480360381019061011e91906114f9565b610a38565b005b61013f600480360381019061013a9190611b80565b610cfb565b60405161015196959493929190611bde565b60405180910390f35b610174600480360381019061016f9190611c46565b610de6565b6040516101819190611d93565b60405180910390f35b6101a4600480360381019061019f9190611b80565b611292565b005b6101ae61140b565b6040516101bb9190611dc4565b60405180910390f35b60606000600160003373ffffffffffffffffffffffffffffffffffffffff1673ffffffffffffffffffffffffffffffffffffffff168152602001908152602001600020600084815260200190815260200160002090506000816000015414158061023357506000816001015414155b8061024c57508060020160009054906101000a900460ff165b8061026557508060020160019054906101000a900460ff165b6102a4576040517f08c379a000000000000000000000000000000000000000000000000000000000815260040161029b90611e2b565b60405180910390fd5b4261038482600401546102b79190611e7a565b116102f7576040517f08c379a00000000000000000000000000000000000000000000000000000000081526004016102ee90611f20565b60405180910390fd5b80600301805461030690611f6f565b80601f016020809104026020016040519081016040528092919081815260200182805461033290611f6f565b801561037f5780601f106103545761010080835404028352916020019161037f565b820191906000526020600020905b81548152906001019060200180831161036257829003601f168201915b5050505050915050919050565b60008054906101000a900473ffffffffffffffffffffffffffffffffffffffff1673ffffffffffffffffffffffffffffffffffffffff163373ffffffffffffffffffffffffffffffffffffffff161461041a576040517f08c379a000000000000000000000000000000000000000000000000000000000815260040161041190612012565b60405180910390fd5b600087511161045e576040517f08c379a00000000000000000000000000000000000000000000000000000000081526004016104559061207e565b60405180910390fd5b60008651116104a2576040517f08c379a000000000000000000000000000000000000000000000000000000000815260040161049990612110565b60405180910390fd5b80518651146104e6576040517f08c379a00000000000000000000000000000000000000000000000000000000081526004016104dd906121a2565b60405180910390fd5b82156104f55760009450610538565b428511610537576040517f08c379a000000000000000000000000000000000000000000000000000000000815260040161052e90612234565b60405180910390fd5b5b8115610547576000935061058b565b6000841161058a576040517f08c379a0000000000000000000000000000000000000000000000000000000008152600401610581906122a0565b60405180910390fd5b5b60005b865181101561076c5760008782815181106105ac576105ab6122c0565b5b6020026020010151905060008383815181106105cb576105ca6122c0565b5b6020026020010151905060005b8a5181101561075c5760008b82815181106105f6576105f56122c0565b5b602002602001015190506040518060c001604052808b81526020018a8152602001891515815260200188151581526020018481526020016000815250600160008373ffffffffffffffffffffffffffffffffffffffff1673ffffffffffffffffffffffffffffffffffffffff1681526020019081526020016000206000868152602001908152602001600020600082015181600001556020820151816001015560408201518160020160006101000a81548160ff02191690831515021790555060608201518160020160016101000a81548160ff02191690831515021790555060808201518160030190816106eb919061249b565b5060a08201518160040155905050838173ffffffffffffffffffffffffffffffffffffffff167fa51d9237c2d7ba19fbae7c84e8cfec4ca9f0fe5a0867cd90d5e1bff9554de3008c8c8c8c604051610746949392919061256d565b60405180910390a35080806001019150506105d8565b505050808060010191505061058e565b5050505050505050565b61077e61142f565b6000600160003373ffffffffffffffffffffffffffffffffffffffff1673ffffffffffffffffffffffffffffffffffffffff16815260200190815260200160002060008481526020019081526020016000206040518060c001604052908160008201548152602001600182015481526020016002820160009054906101000a900460ff161515151581526020016002820160019054906101000a900460ff1615151515815260200160038201805461083590611f6f565b80601f016020809104026020016040519081016040528092919081815260200182805461086190611f6f565b80156108ae5780601f10610883576101008083540402835291602001916108ae565b820191906000526020600020905b81548152906001019060200180831161089157829003601f168201915b505050505081526020016004820154815250509050600081600001511480156108db575060008160200151145b80156108e957508060400151155b80156108f757508060600151155b15610924576040518060600160405280600015158152602001600081526020016000815250915050610a33565b80604001518015610936575080606001515b15610963576040518060600160405280600115158152602001600081526020016000815250915050610a33565b8060400151801561097657508060600151155b156109ac576040518060600160405280600083602001511115158152602001600081526020018260200151815250915050610a33565b80604001511580156109bf575080606001515b156109f45760405180606001604052804283600001511115158152602001826000015181526020016000815250915050610a33565b6040518060600160405280428360000151118015610a16575060008360200151115b151581526020018260000151815260200182602001518152509150505b919050565b6000600160003373ffffffffffffffffffffffffffffffffffffffff1673ffffffffffffffffffffffffffffffffffffffff1681526020019081526020016000206000838152602001908152602001600020905060008160000154141580610aa557506000816001015414155b80610abe57508060020160009054906101000a900460ff165b80610ad757508060020160019054906101000a900460ff165b610b16576040517f08c379a0000000000000000000000000000000000000000000000000000000008152600401610b0d90611e2b565b60405180910390fd5b8060020160009054906101000a900460ff168015610b4357508060020160019054906101000a900460ff16155b15610bac576000816001015411610b8f576040517f08c379a0000000000000000000000000000000000000000000000000000000008152600401610b86906125fe565b60405180910390fd5b6001816001016000828254610ba4919061261e565b925050819055505b8060020160009054906101000a900460ff16158015610bd957508060020160019054906101000a900460ff165b15610c255742816000015411610c24576040517f08c379a0000000000000000000000000000000000000000000000000000000008152600401610c1b9061269e565b60405180910390fd5b5b8060020160009054906101000a900460ff16158015610c5357508060020160019054906101000a900460ff16155b15610c9557428160000154118015610c6f575060008160010154115b610c7857600080fd5b6001816001016000828254610c8d919061261e565b925050819055505b813373ffffffffffffffffffffffffffffffffffffffff167fd6227ad763b3ffa5ebbdfe821c7259f9da9c5db57f94e587e3012a785f66f3a983600001548460010154604051610ce69291906126be565b60405180910390a34281600401819055505050565b6001602052816000526040600020602052806000526040600020600091509150508060000154908060010154908060020160009054906101000a900460ff16908060020160019054906101000a900460ff1690806003018054610d5d90611f6f565b80601f0160208091040260200160405190810160405280929190818152602001828054610d8990611f6f565b8015610dd65780601f10610dab57610100808354040283529160200191610dd6565b820191906000526020600020905b815481529060010190602001808311610db957829003601f168201915b5050505050908060040154905086565b606060008054906101000a900473ffffffffffffffffffffffffffffffffffffffff1673ffffffffffffffffffffffffffffffffffffffff163373ffffffffffffffffffffffffffffffffffffffff1614610e76576040517f08c379a0000000000000000000000000000000000000000000000000000000008152600401610e6d90612759565b60405180910390fd5b6000825111610eba576040517f08c379a0000000000000000000000000000000000000000000000000000000008152600401610eb1906127eb565b60405180910390fd5b6000825167ffffffffffffffff811115610ed757610ed66115dd565b5b604051908082528060200260200182016040528015610f1057816020015b610efd61142f565b815260200190600190039081610ef55790505b50905060005b8351811015611287576000600160008773ffffffffffffffffffffffffffffffffffffffff1673ffffffffffffffffffffffffffffffffffffffff1681526020019081526020016000206000868481518110610f7557610f746122c0565b5b602002602001015181526020019081526020016000206040518060c001604052908160008201548152602001600182015481526020016002820160009054906101000a900460ff161515151581526020016002820160019054906101000a900460ff16151515158152602001600382018054610ff090611f6f565b80601f016020809104026020016040519081016040528092919081815260200182805461101c90611f6f565b80156110695780601f1061103e57610100808354040283529160200191611069565b820191906000526020600020905b81548152906001019060200180831161104c57829003601f168201915b50505050508152602001600482015481525050905060008160000151148015611096575060008160200151145b80156110a457508060400151155b80156110b257508060600151155b156110fb5760405180606001604052806000151581526020016000815260200160008152508383815181106110ea576110e96122c0565b5b60200260200101819052505061127a565b8060400151801561110d575080606001515b15611156576040518060600160405280600115158152602001600081526020016000815250838381518110611145576111446122c0565b5b60200260200101819052505061127a565b8060400151801561116957508060600151155b156111bb5760405180606001604052806000836020015111151581526020016000815260200182602001518152508383815181106111aa576111a96122c0565b5b60200260200101819052505061127a565b80604001511580156111ce575080606001515b1561121f576040518060600160405280428360000151111515815260200182600001518152602001600081525083838151811061120e5761120d6122c0565b5b60200260200101819052505061127a565b6040518060600160405280428360000151118015611241575060008360200151115b1515815260200182600001518152602001826020015181525083838151811061126d5761126c6122c0565b5b6020026020010181905250505b8080600101915050610f16565b508091505092915050565b60008054906101000a900473ffffffffffffffffffffffffffffffffffffffff1673ffffffffffffffffffffffffffffffffffffffff163373ffffffffffffffffffffffffffffffffffffffff1614611320576040517f08c379a00000000000000000000000000000000000000000000000000000000081526004016113179061287d565b60405180910390fd5b600160008373ffffffffffffffffffffffffffffffffffffffff1673ffffffffffffffffffffffffffffffffffffffff168152602001908152602001600020600082815260200190815260200160002060008082016000905560018201600090556002820160006101000a81549060ff02191690556002820160016101000a81549060ff02191690556003820160006113b99190611452565b60048201600090555050808273ffffffffffffffffffffffffffffffffffffffff167fb11340c2209a7f3d45f1892c58bf80c7f85676ff4f232e0546efecdf65c64b9660405160405180910390a35050565b60008054906101000a900473ffffffffffffffffffffffffffffffffffffffff1681565b604051806060016040528060001515815260200160008152602001600081525090565b50805461145e90611f6f565b6000825580601f10611470575061148f565b601f01602090049060005260206000209081019061148e9190611492565b5b50565b5b808211156114ab576000816000905550600101611493565b5090565b6000604051905090565b600080fd5b600080fd5b6000819050919050565b6114d6816114c3565b81146114e157600080fd5b50565b6000813590506114f3816114cd565b92915050565b60006020828403121561150f5761150e6114b9565b5b600061151d848285016114e4565b91505092915050565b600081519050919050565b600082825260208201905092915050565b60005b83811015611560578082015181840152602081019050611545565b60008484015250505050565b6000601f19601f8301169050919050565b600061158882611526565b6115928185611531565b93506115a2818560208601611542565b6115ab8161156c565b840191505092915050565b600060208201905081810360008301526115d0818461157d565b905092915050565b600080fd5b7f4e487b7100000000000000000000000000000000000000000000000000000000600052604160045260246000fd5b6116158261156c565b810181811067ffffffffffffffff82111715611634576116336115dd565b5b80604052505050565b60006116476114af565b9050611653828261160c565b919050565b600067ffffffffffffffff821115611673576116726115dd565b5b602082029050602081019050919050565b600080fd5b600073ffffffffffffffffffffffffffffffffffffffff82169050919050565b60006116b482611689565b9050919050565b6116c4816116a9565b81146116cf57600080fd5b50565b6000813590506116e1816116bb565b92915050565b60006116fa6116f584611658565b61163d565b9050808382526020820190506020840283018581111561171d5761171c611684565b5b835b81811015611746578061173288826116d2565b84526020840193505060208101905061171f565b5050509392505050565b600082601f830112611765576117646115d8565b5b81356117758482602086016116e7565b91505092915050565b600067ffffffffffffffff821115611799576117986115dd565b5b602082029050602081019050919050565b60006117bd6117b88461177e565b61163d565b905080838252602082019050602084028301858111156117e0576117df611684565b5b835b8181101561180957806117f588826114e4565b8452602084019350506020810190506117e2565b5050509392505050565b600082601f830112611828576118276115d8565b5b81356118388482602086016117aa565b91505092915050565b60008115159050919050565b61185681611841565b811461186157600080fd5b50565b6000813590506118738161184d565b92915050565b600067ffffffffffffffff821115611894576118936115dd565b5b602082029050602081019050919050565b600080fd5b600067ffffffffffffffff8211156118c5576118c46115dd565b5b6118ce8261156c565b9050602081019050919050565b82818337600083830152505050565b60006118fd6118f8846118aa565b61163d565b905082815260208101848484011115611919576119186118a5565b5b6119248482856118db565b509392505050565b600082601f830112611941576119406115d8565b5b81356119518482602086016118ea565b91505092915050565b600061196d61196884611879565b61163d565b905080838252602082019050602084028301858111156119905761198f611684565b5b835b818110156119d757803567ffffffffffffffff8111156119b5576119b46115d8565b5b8086016119c2898261192c565b85526020850194505050602081019050611992565b5050509392505050565b600082601f8301126119f6576119f56115d8565b5b8135611a0684826020860161195a565b91505092915050565b600080600080600080600060e0888a031215611a2e57611a2d6114b9565b5b600088013567ffffffffffffffff811115611a4c57611a4b6114be565b5b611a588a828b01611750565b975050602088013567ffffffffffffffff811115611a7957611a786114be565b5b611a858a828b01611813565b9650506040611a968a828b016114e4565b9550506060611aa78a828b016114e4565b9450506080611ab88a828b01611864565b93505060a0611ac98a828b01611864565b92505060c088013567ffffffffffffffff811115611aea57611ae96114be565b5b611af68a828b016119e1565b91505092959891949750929550565b611b0e81611841565b82525050565b611b1d816114c3565b82525050565b606082016000820151611b396000850182611b05565b506020820151611b4c6020850182611b14565b506040820151611b5f6040850182611b14565b50505050565b6000606082019050611b7a6000830184611b23565b92915050565b60008060408385031215611b9757611b966114b9565b5b6000611ba5858286016116d2565b9250506020611bb6858286016114e4565b9150509250929050565b611bc9816114c3565b82525050565b611bd881611841565b82525050565b600060c082019050611bf36000830189611bc0565b611c006020830188611bc0565b611c0d6040830187611bcf565b611c1a6060830186611bcf565b8181036080830152611c2c818561157d565b9050611c3b60a0830184611bc0565b979650505050505050565b60008060408385031215611c5d57611c5c6114b9565b5b6000611c6b858286016116d2565b925050602083013567ffffffffffffffff811115611c8c57611c8b6114be565b5b611c9885828601611813565b9150509250929050565b600081519050919050565b600082825260208201905092915050565b6000819050602082019050919050565b606082016000820151611ce46000850182611b05565b506020820151611cf76020850182611b14565b506040820151611d0a6040850182611b14565b50505050565b6000611d1c8383611cce565b60608301905092915050565b6000602082019050919050565b6000611d4082611ca2565b611d4a8185611cad565b9350611d5583611cbe565b8060005b83811015611d86578151611d6d8882611d10565b9750611d7883611d28565b925050600181019050611d59565b5085935050505092915050565b60006020820190508181036000830152611dad8184611d35565b905092915050565b611dbe816116a9565b82525050565b6000602082019050611dd96000830184611db5565b92915050565b7f4b65696e2045696e7472616720676566756e64656e0000000000000000000000600082015250565b6000611e15601583611531565b9150611e2082611ddf565b602082019050919050565b60006020820190508181036000830152611e4481611e08565b9050919050565b7f4e487b7100000000000000000000000000000000000000000000000000000000600052601160045260246000fd5b6000611e85826114c3565b9150611e90836114c3565b9250828201905080821115611ea857611ea7611e4b565b5b92915050565b7f49687265203135206d696e205a7567726966662073696e6420616267656c617560008201527f66656e0000000000000000000000000000000000000000000000000000000000602082015250565b6000611f0a602383611531565b9150611f1582611eae565b604082019050919050565b60006020820190508181036000830152611f3981611efd565b9050919050565b7f4e487b7100000000000000000000000000000000000000000000000000000000600052602260045260246000fd5b60006002820490506001821680611f8757607f821691505b602082108103611f9a57611f99611f40565b5b50919050565b7f4e7572206465722050617469656e74206b616e6e205a7567726966662067657760008201527f61656872656e0000000000000000000000000000000000000000000000000000602082015250565b6000611ffc602683611531565b915061200782611fa0565b604082019050919050565b6000602082019050818103600083015261202b81611fef565b9050919050565b7f4d696e64657374656e732065696e2041727a74207565626572676562656e0000600082015250565b6000612068601e83611531565b915061207382612032565b602082019050919050565b600060208201905081810360008301526120978161205b565b9050919050565b7f4d696e64657374656e732065696e20446f6b756d656e7420756562657267656260008201527f656e000000000000000000000000000000000000000000000000000000000000602082015250565b60006120fa602283611531565b91506121058261209e565b604082019050919050565b60006020820190508181036000830152612129816120ed565b9050919050565b7f416e7a61686c204b65797320756e6420416e7a61686c20446f6b756d656e746560008201527f206d7573732070617373656e0000000000000000000000000000000000000000602082015250565b600061218c602c83611531565b915061219782612130565b604082019050919050565b600060208201905081810360008301526121bb8161217f565b9050919050565b7f416e67616265206d75737320696e20646572205a756b756e6674206c6965676560008201527f6e00000000000000000000000000000000000000000000000000000000000000602082015250565b600061221e602183611531565b9150612229826121c2565b604082019050919050565b6000602082019050818103600083015261224d81612211565b9050919050565b7f5a75677269666665206d75657373656e203e30207365696e2100000000000000600082015250565b600061228a601983611531565b915061229582612254565b602082019050919050565b600060208201905081810360008301526122b98161227d565b9050919050565b7f4e487b7100000000000000000000000000000000000000000000000000000000600052603260045260246000fd5b60008190508160005260206000209050919050565b60006020601f8301049050919050565b600082821b905092915050565b6000600883026123517fffffffffffffffffffffffffffffffffffffffffffffffffffffffffffffffff82612314565b61235b8683612314565b95508019841693508086168417925050509392505050565b6000819050919050565b600061239861239361238e846114c3565b612373565b6114c3565b9050919050565b6000819050919050565b6123b28361237d565b6123c66123be8261239f565b848454612321565b825550505050565b600090565b6123db6123ce565b6123e68184846123a9565b505050565b5b8181101561240a576123ff6000826123d3565b6001810190506123ec565b5050565b601f82111561244f57612420816122ef565b61242984612304565b81016020851015612438578190505b61244c61244485612304565b8301826123eb565b50505b505050565b600082821c905092915050565b600061247260001984600802612454565b1980831691505092915050565b600061248b8383612461565b9150826002028217905092915050565b6124a482611526565b67ffffffffffffffff8111156124bd576124bc6115dd565b5b6124c78254611f6f565b6124d282828561240e565b600060209050601f83116001811461250557600084156124f3578287015190505b6124fd858261247f565b865550612565565b601f198416612513866122ef565b60005b8281101561253b57848901518255600182019150602085019450602081019050612516565b868310156125585784890151612554601f891682612461565b8355505b6001600288020188555050505b505050505050565b60006080820190506125826000830187611bc0565b61258f6020830186611bc0565b61259c6040830185611bcf565b6125a96060830184611bcf565b95945050505050565b7f4b65696e65205a75677269666665207565627269670000000000000000000000600082015250565b60006125e8601583611531565b91506125f3826125b2565b602082019050919050565b60006020820190508181036000830152612617816125db565b9050919050565b6000612629826114c3565b9150612634836114c3565b925082820390508181111561264c5761264b611e4b565b5b92915050565b7f5a756772696666737a6569747261756d20616267656c617566656e0000000000600082015250565b6000612688601b83611531565b915061269382612652565b602082019050919050565b600060208201905081810360008301526126b78161267b565b9050919050565b60006040820190506126d36000830185611bc0565b6126e06020830184611bc0565b9392505050565b7f4e7572206465722050617469656e74206461726620736568656e20776572205a60008201527f7567726966662068617400000000000000000000000000000000000000000000602082015250565b6000612743602a83611531565b915061274e826126e7565b604082019050919050565b6000602082019050818103600083015261277281612736565b9050919050565b7f41727261792064657220446f6b756d656e7465206d757373206d696e6465737460008201527f656e73203120494420656e7468616c74656e0000000000000000000000000000602082015250565b60006127d5603283611531565b91506127e082612779565b604082019050919050565b60006020820190508181036000830152612804816127c8565b9050919050565b7f4e75722050617469656e74206461726620426572656368746967756e67656e2060008201527f656e746665726e656e0000000000000000000000000000000000000000000000602082015250565b6000612867602983611531565b91506128728261280b565b604082019050919050565b600060208201905081810360008301526128968161285a565b905091905056fea2646970667358221220698478e5bbe1fdb63a5e0ba8ebfd738c1ca3d7900ca236cf775523a77bbb313064736f6c634300081c0033",
  "linkReferences": {},
  "deployedLinkReferences": {}
}