{
  "_format": "hh-sol-artifact-1",
  "contractName": "Patientenakte",
  "sourceName": "contracts/Patientenakte.sol",
  "abi": [
    {
      "inputs": [
        {
          "internalType": "address",
          "name": "_patient",
          "type": "address"
        }
      ],
      "stateMutability": "nonpayable",
      "type": "constructor"
    },
    {
      "anonymous": false,
      "inputs": [
        {
          "indexed": true,
          "internalType": "address",
          "name": "doctor",
          "type": "address"
        },
        {
          "indexed": true,
          "internalType": "uint256",
          "name": "documentID",
          "type": "uint256"
        },
        {
          "indexed": false,
          "internalType": "uint256",
          "name": "expiresAt",
          "type": "uint256"
        },
        {
          "indexed": false,
          "internalType": "uint256",
          "name": "remainingUses",
          "type": "uint256"
        },
        {
          "indexed": false,
          "internalType": "bool",
          "name": "expiresFlag",
          "type": "bool"
        },
        {
          "indexed": false,
          "internalType": "bool",
          "name": "usesFlag",
          "type": "bool"
        }
      ],
      "name": "AccessGranted",
      "type": "event"
    },
    {
      "anonymous": false,
      "inputs": [
        {
          "indexed": true,
          "internalType": "address",
          "name": "doctor",
          "type": "address"
        },
        {
          "indexed": true,
          "internalType": "uint256",
          "name": "documentID",
          "type": "uint256"
        }
      ],
      "name": "AccessRevoked",
      "type": "event"
    },
    {
      "anonymous": false,
      "inputs": [
        {
          "indexed": true,
          "internalType": "address",
          "name": "doctor",
          "type": "address"
        },
        {
          "indexed": true,
          "internalType": "uint256",
          "name": "documentID",
          "type": "uint256"
        },
        {
          "indexed": false,
          "internalType": "uint256",
          "name": "expiresAt",
          "type": "uint256"
        },
        {
          "indexed": false,
          "internalType": "uint256",
          "name": "remainingUses",
          "type": "uint256"
        }
      ],
      "name": "AccessUsed",
      "type": "event"
    },
    {
      "inputs": [
        {
          "internalType": "address",
          "name": "",
          "type": "address"
        },
        {
          "internalType": "uint256",
          "name": "",
          "type": "uint256"
        }
      ],
      "name": "accessList",
      "outputs": [
        {
          "internalType": "uint256",
          "name": "expiresAt",
          "type": "uint256"
        },
        {
          "internalType": "uint256",
          "name": "remainingUses",
          "type": "uint256"
        },
        {
          "internalType": "bool",
          "name": "expiresFlag",
          "type": "bool"
        },
        {
          "internalType": "bool",
          "name": "usesFlag",
          "type": "bool"
        },
        {
          "internalType": "string",
          "name": "encryptedKey",
          "type": "string"
        }
      ],
      "stateMutability": "view",
      "type": "function"
    },
    {
      "inputs": [
        {
          "internalType": "address",
          "name": "_doctor",
          "type": "address"
        },
        {
          "internalType": "uint256",
          "name": "_documentID",
          "type": "uint256"
        },
        {
          "internalType": "uint256",
          "name": "_expiresAt",
          "type": "uint256"
        },
        {
          "internalType": "uint256",
          "name": "_remainingUses",
          "type": "uint256"
        },
        {
          "internalType": "bool",
          "name": "_expiresFlag",
          "type": "bool"
        },
        {
          "internalType": "bool",
          "name": "_usesFlag",
          "type": "bool"
        },
        {
          "internalType": "string",
          "name": "_encryptedKey",
          "type": "string"
        }
      ],
      "name": "grantAccess",
      "outputs": [],
      "stateMutability": "nonpayable",
      "type": "function"
    },
    {
      "inputs": [
        {
          "internalType": "address[]",
          "name": "_doctors",
          "type": "address[]"
        },
        {
          "internalType": "uint256[]",
          "name": "_documentIDs",
          "type": "uint256[]"
        },
        {
          "internalType": "uint256",
          "name": "_expiresAt",
          "type": "uint256"
        },
        {
          "internalType": "uint256",
          "name": "_remainingUses",
          "type": "uint256"
        },
        {
          "internalType": "bool",
          "name": "_expiresFlag",
          "type": "bool"
        },
        {
          "internalType": "bool",
          "name": "_usesFlag",
          "type": "bool"
        },
        {
          "internalType": "string[]",
          "name": "_encryptedKeys",
          "type": "string[]"
        }
      ],
      "name": "grantMultiAccess",
      "outputs": [],
      "stateMutability": "nonpayable",
      "type": "function"
    },
    {
      "inputs": [
        {
          "internalType": "uint256",
          "name": "_documentID",
          "type": "uint256"
        }
      ],
      "name": "hasAccess",
      "outputs": [
        {
          "internalType": "bool",
          "name": "",
          "type": "bool"
        }
      ],
      "stateMutability": "view",
      "type": "function"
    },
    {
      "inputs": [],
      "name": "patient",
      "outputs": [
        {
          "internalType": "address",
          "name": "",
          "type": "address"
        }
      ],
      "stateMutability": "view",
      "type": "function"
    },
    {
      "inputs": [
        {
          "internalType": "address",
          "name": "_doctor",
          "type": "address"
        },
        {
          "internalType": "uint256",
          "name": "_documentID",
          "type": "uint256"
        }
      ],
      "name": "revokeAccess",
      "outputs": [],
      "stateMutability": "nonpayable",
      "type": "function"
    },
    {
      "inputs": [
        {
          "internalType": "uint256",
          "name": "_documentID",
          "type": "uint256"
        }
      ],
      "name": "useAccess",
      "outputs": [
        {
          "internalType": "string",
          "name": "",
          "type": "string"
        }
      ],
      "stateMutability": "nonpayable",
      "type": "function"
    }
  ],
  "bytecode": "0x608060405234801561001057600080fd5b506040516122fc3803806122fc833981810160405281019061003291906100db565b806000806101000a81548173ffffffffffffffffffffffffffffffffffffffff021916908373ffffffffffffffffffffffffffffffffffffffff16021790555050610108565b600080fd5b600073ffffffffffffffffffffffffffffffffffffffff82169050919050565b60006100a88261007d565b9050919050565b6100b88161009d565b81146100c357600080fd5b50565b6000815190506100d5816100af565b92915050565b6000602082840312156100f1576100f0610078565b5b60006100ff848285016100c6565b91505092915050565b6121e5806101176000396000f3fe608060405234801561001057600080fd5b506004361061007d5760003560e01c806376adc5c81161005b57806376adc5c814610102578063a99d83791461011e578063bd96bd201461013a578063e6a214c6146101585761007d565b80630fcc0970146100825780633132ddfe1461009e57806370c2b419146100ce575b600080fd5b61009c60048036038101906100979190611484565b610188565b005b6100b860048036038101906100b3919061157a565b610561565b6040516100c591906115b6565b60405180910390f35b6100e860048036038101906100e391906115d1565b610770565b6040516100f995949392919061169f565b60405180910390f35b61011c600480360381019061011791906116f9565b610855565b005b610138600480360381019061013391906115d1565b610aae565b005b610142610c1f565b60405161014f91906117c6565b60405180910390f35b610172600480360381019061016d919061157a565b610c43565b60405161017f91906117e1565b60405180910390f35b60008054906101000a900473ffffffffffffffffffffffffffffffffffffffff1673ffffffffffffffffffffffffffffffffffffffff163373ffffffffffffffffffffffffffffffffffffffff1614610216576040517f08c379a000000000000000000000000000000000000000000000000000000000815260040161020d90611875565b60405180910390fd5b600087511161025a576040517f08c379a0000000000000000000000000000000000000000000000000000000008152600401610251906118e1565b60405180910390fd5b600086511161029e576040517f08c379a000000000000000000000000000000000000000000000000000000000815260040161029590611973565b60405180910390fd5b80518651146102e2576040517f08c379a00000000000000000000000000000000000000000000000000000000081526004016102d990611a05565b60405180910390fd5b82156102f15760009450610334565b428511610333576040517f08c379a000000000000000000000000000000000000000000000000000000000815260040161032a90611a97565b60405180910390fd5b5b81156103435760009350610387565b60008411610386576040517f08c379a000000000000000000000000000000000000000000000000000000000815260040161037d90611b03565b60405180910390fd5b5b60005b86518110156105575760008782815181106103a8576103a7611b23565b5b6020026020010151905060008383815181106103c7576103c6611b23565b5b6020026020010151905060005b8a518110156105475760008b82815181106103f2576103f1611b23565b5b602002602001015190506040518060a001604052808b81526020018a81526020018915158152602001881515815260200184815250600160008373ffffffffffffffffffffffffffffffffffffffff1673ffffffffffffffffffffffffffffffffffffffff1681526020019081526020016000206000868152602001908152602001600020600082015181600001556020820151816001015560408201518160020160006101000a81548160ff02191690831515021790555060608201518160020160016101000a81548160ff02191690831515021790555060808201518160030190816104e09190611d5e565b50905050838173ffffffffffffffffffffffffffffffffffffffff167fa51d9237c2d7ba19fbae7c84e8cfec4ca9f0fe5a0867cd90d5e1bff9554de3008c8c8c8c6040516105319493929190611e30565b60405180910390a35080806001019150506103d4565b505050808060010191505061038a565b5050505050505050565b600080600160003373ffffffffffffffffffffffffffffffffffffffff1673ffffffffffffffffffffffffffffffffffffffff16815260200190815260200160002060008481526020019081526020016000206040518060a001604052908160008201548152602001600182015481526020016002820160009054906101000a900460ff161515151581526020016002820160019054906101000a900460ff1615151515815260200160038201805461061990611b81565b80601f016020809104026020016040519081016040528092919081815260200182805461064590611b81565b80156106925780601f1061066757610100808354040283529160200191610692565b820191906000526020600020905b81548152906001019060200180831161067557829003601f168201915b5050505050815250509050600081600001511480156106b5575060008160200151145b80156106c357508060400151155b80156106d157508060600151155b156106e057600091505061076b565b806040015180156106f2575080606001515b1561070157600191505061076b565b8060400151801561071457508060600151155b1561072957600081602001511191505061076b565b806040015115801561073c575080606001515b15610750574281600001511191505061076b565b428160000151118015610767575060008160200151115b9150505b919050565b6001602052816000526040600020602052806000526040600020600091509150508060000154908060010154908060020160009054906101000a900460ff16908060020160019054906101000a900460ff16908060030180546107d290611b81565b80601f01602080910402602001604051908101604052809291908181526020018280546107fe90611b81565b801561084b5780601f106108205761010080835404028352916020019161084b565b820191906000526020600020905b81548152906001019060200180831161082e57829003601f168201915b5050505050905085565b60008054906101000a900473ffffffffffffffffffffffffffffffffffffffff1673ffffffffffffffffffffffffffffffffffffffff163373ffffffffffffffffffffffffffffffffffffffff16146108e3576040517f08c379a00000000000000000000000000000000000000000000000000000000081526004016108da90611875565b60405180910390fd5b428511610925576040517f08c379a000000000000000000000000000000000000000000000000000000000815260040161091c90611ec1565b60405180910390fd5b60008411610968576040517f08c379a000000000000000000000000000000000000000000000000000000000815260040161095f90611f2d565b60405180910390fd5b6040518060a001604052808681526020018581526020018415158152602001831515815260200182815250600160008973ffffffffffffffffffffffffffffffffffffffff1673ffffffffffffffffffffffffffffffffffffffff1681526020019081526020016000206000888152602001908152602001600020600082015181600001556020820151816001015560408201518160020160006101000a81548160ff02191690831515021790555060608201518160020160016101000a81548160ff0219169083151502179055506080820151816003019081610a4c9190611d5e565b50905050858773ffffffffffffffffffffffffffffffffffffffff167fa51d9237c2d7ba19fbae7c84e8cfec4ca9f0fe5a0867cd90d5e1bff9554de30087878787604051610a9d9493929190611e30565b60405180910390a350505050505050565b60008054906101000a900473ffffffffffffffffffffffffffffffffffffffff1673ffffffffffffffffffffffffffffffffffffffff163373ffffffffffffffffffffffffffffffffffffffff1614610b3c576040517f08c379a0000000000000000000000000000000000000000000000000000000008152600401610b3390611fbf565b60405180910390fd5b600160008373ffffffffffffffffffffffffffffffffffffffff1673ffffffffffffffffffffffffffffffffffffffff168152602001908152602001600020600082815260200190815260200160002060008082016000905560018201600090556002820160006101000a81549060ff02191690556002820160016101000a81549060ff0219169055600382016000610bd59190610f95565b5050808273ffffffffffffffffffffffffffffffffffffffff167fb11340c2209a7f3d45f1892c58bf80c7f85676ff4f232e0546efecdf65c64b9660405160405180910390a35050565b60008054906101000a900473ffffffffffffffffffffffffffffffffffffffff1681565b60606000600160003373ffffffffffffffffffffffffffffffffffffffff1673ffffffffffffffffffffffffffffffffffffffff168152602001908152602001600020600084815260200190815260200160002090506000816000015414158015610cb357506000816001015414155b8015610cce57508060020160009054906101000a900460ff16155b8015610ce957508060020160019054906101000a900460ff16155b610d28576040517f08c379a0000000000000000000000000000000000000000000000000000000008152600401610d1f9061202b565b60405180910390fd5b8060020160009054906101000a900460ff168015610d5557508060020160019054906101000a900460ff16155b15610dbe576000816001015411610da1576040517f08c379a0000000000000000000000000000000000000000000000000000000008152600401610d9890612097565b60405180910390fd5b6001816001016000828254610db691906120e6565b925050819055505b8060020160009054906101000a900460ff16158015610deb57508060020160019054906101000a900460ff165b15610e375742816000015411610e36576040517f08c379a0000000000000000000000000000000000000000000000000000000008152600401610e2d90612166565b60405180910390fd5b5b8060020160009054906101000a900460ff16158015610e6557508060020160019054906101000a900460ff16155b15610ea757428160000154118015610e81575060008160010154115b610e8a57600080fd5b6001816001016000828254610e9f91906120e6565b925050819055505b823373ffffffffffffffffffffffffffffffffffffffff167fd6227ad763b3ffa5ebbdfe821c7259f9da9c5db57f94e587e3012a785f66f3a983600001548460010154604051610ef8929190612186565b60405180910390a3806003018054610f0f90611b81565b80601f0160208091040260200160405190810160405280929190818152602001828054610f3b90611b81565b8015610f885780601f10610f5d57610100808354040283529160200191610f88565b820191906000526020600020905b815481529060010190602001808311610f6b57829003601f168201915b5050505050915050919050565b508054610fa190611b81565b6000825580601f10610fb35750610fd2565b601f016020900490600052602060002090810190610fd19190610fd5565b5b50565b5b80821115610fee576000816000905550600101610fd6565b5090565b6000604051905090565b600080fd5b600080fd5b600080fd5b6000601f19601f8301169050919050565b7f4e487b7100000000000000000000000000000000000000000000000000000000600052604160045260246000fd5b6110548261100b565b810181811067ffffffffffffffff821117156110735761107261101c565b5b80604052505050565b6000611086610ff2565b9050611092828261104b565b919050565b600067ffffffffffffffff8211156110b2576110b161101c565b5b602082029050602081019050919050565b600080fd5b600073ffffffffffffffffffffffffffffffffffffffff82169050919050565b60006110f3826110c8565b9050919050565b611103816110e8565b811461110e57600080fd5b50565b600081359050611120816110fa565b92915050565b600061113961113484611097565b61107c565b9050808382526020820190506020840283018581111561115c5761115b6110c3565b5b835b8181101561118557806111718882611111565b84526020840193505060208101905061115e565b5050509392505050565b600082601f8301126111a4576111a3611006565b5b81356111b4848260208601611126565b91505092915050565b600067ffffffffffffffff8211156111d8576111d761101c565b5b602082029050602081019050919050565b6000819050919050565b6111fc816111e9565b811461120757600080fd5b50565b600081359050611219816111f3565b92915050565b600061123261122d846111bd565b61107c565b90508083825260208201905060208402830185811115611255576112546110c3565b5b835b8181101561127e578061126a888261120a565b845260208401935050602081019050611257565b5050509392505050565b600082601f83011261129d5761129c611006565b5b81356112ad84826020860161121f565b91505092915050565b60008115159050919050565b6112cb816112b6565b81146112d657600080fd5b50565b6000813590506112e8816112c2565b92915050565b600067ffffffffffffffff8211156113095761130861101c565b5b602082029050602081019050919050565b600080fd5b600067ffffffffffffffff82111561133a5761133961101c565b5b6113438261100b565b9050602081019050919050565b82818337600083830152505050565b600061137261136d8461131f565b61107c565b90508281526020810184848401111561138e5761138d61131a565b5b611399848285611350565b509392505050565b600082601f8301126113b6576113b5611006565b5b81356113c684826020860161135f565b91505092915050565b60006113e26113dd846112ee565b61107c565b90508083825260208201905060208402830185811115611405576114046110c3565b5b835b8181101561144c57803567ffffffffffffffff81111561142a57611429611006565b5b80860161143789826113a1565b85526020850194505050602081019050611407565b5050509392505050565b600082601f83011261146b5761146a611006565b5b813561147b8482602086016113cf565b91505092915050565b600080600080600080600060e0888a0312156114a3576114a2610ffc565b5b600088013567ffffffffffffffff8111156114c1576114c0611001565b5b6114cd8a828b0161118f565b975050602088013567ffffffffffffffff8111156114ee576114ed611001565b5b6114fa8a828b01611288565b965050604061150b8a828b0161120a565b955050606061151c8a828b0161120a565b945050608061152d8a828b016112d9565b93505060a061153e8a828b016112d9565b92505060c088013567ffffffffffffffff81111561155f5761155e611001565b5b61156b8a828b01611456565b91505092959891949750929550565b6000602082840312156115905761158f610ffc565b5b600061159e8482850161120a565b91505092915050565b6115b0816112b6565b82525050565b60006020820190506115cb60008301846115a7565b92915050565b600080604083850312156115e8576115e7610ffc565b5b60006115f685828601611111565b92505060206116078582860161120a565b9150509250929050565b61161a816111e9565b82525050565b600081519050919050565b600082825260208201905092915050565b60005b8381101561165a57808201518184015260208101905061163f565b60008484015250505050565b600061167182611620565b61167b818561162b565b935061168b81856020860161163c565b6116948161100b565b840191505092915050565b600060a0820190506116b46000830188611611565b6116c16020830187611611565b6116ce60408301866115a7565b6116db60608301856115a7565b81810360808301526116ed8184611666565b90509695505050505050565b600080600080600080600060e0888a03121561171857611717610ffc565b5b60006117268a828b01611111565b97505060206117378a828b0161120a565b96505060406117488a828b0161120a565b95505060606117598a828b0161120a565b945050608061176a8a828b016112d9565b93505060a061177b8a828b016112d9565b92505060c088013567ffffffffffffffff81111561179c5761179b611001565b5b6117a88a828b016113a1565b91505092959891949750929550565b6117c0816110e8565b82525050565b60006020820190506117db60008301846117b7565b92915050565b600060208201905081810360008301526117fb8184611666565b905092915050565b7f4e7572206465722050617469656e74206b616e6e205a7567726966662067657760008201527f61656872656e0000000000000000000000000000000000000000000000000000602082015250565b600061185f60268361162b565b915061186a82611803565b604082019050919050565b6000602082019050818103600083015261188e81611852565b9050919050565b7f4d696e64657374656e732065696e2041727a74207565626572676562656e0000600082015250565b60006118cb601e8361162b565b91506118d682611895565b602082019050919050565b600060208201905081810360008301526118fa816118be565b9050919050565b7f4d696e64657374656e732065696e20446f6b756d656e7420756562657267656260008201527f656e000000000000000000000000000000000000000000000000000000000000602082015250565b600061195d60228361162b565b915061196882611901565b604082019050919050565b6000602082019050818103600083015261198c81611950565b9050919050565b7f416e7a61686c204b65797320756e6420416e7a61686c20446f6b756d656e746560008201527f206d7573732070617373656e0000000000000000000000000000000000000000602082015250565b60006119ef602c8361162b565b91506119fa82611993565b604082019050919050565b60006020820190508181036000830152611a1e816119e2565b9050919050565b7f416e67616265206d75737320696e20646572205a756b756e6674206c6965676560008201527f6e00000000000000000000000000000000000000000000000000000000000000602082015250565b6000611a8160218361162b565b9150611a8c82611a25565b604082019050919050565b60006020820190508181036000830152611ab081611a74565b9050919050565b7f5a75677269666665206d75657373656e203e30207365696e2100000000000000600082015250565b6000611aed60198361162b565b9150611af882611ab7565b602082019050919050565b60006020820190508181036000830152611b1c81611ae0565b9050919050565b7f4e487b7100000000000000000000000000000000000000000000000000000000600052603260045260246000fd5b7f4e487b7100000000000000000000000000000000000000000000000000000000600052602260045260246000fd5b60006002820490506001821680611b9957607f821691505b602082108103611bac57611bab611b52565b5b50919050565b60008190508160005260206000209050919050565b60006020601f8301049050919050565b600082821b905092915050565b600060088302611c147fffffffffffffffffffffffffffffffffffffffffffffffffffffffffffffffff82611bd7565b611c1e8683611bd7565b95508019841693508086168417925050509392505050565b6000819050919050565b6000611c5b611c56611c51846111e9565b611c36565b6111e9565b9050919050565b6000819050919050565b611c7583611c40565b611c89611c8182611c62565b848454611be4565b825550505050565b600090565b611c9e611c91565b611ca9818484611c6c565b505050565b5b81811015611ccd57611cc2600082611c96565b600181019050611caf565b5050565b601f821115611d1257611ce381611bb2565b611cec84611bc7565b81016020851015611cfb578190505b611d0f611d0785611bc7565b830182611cae565b50505b505050565b600082821c905092915050565b6000611d3560001984600802611d17565b1980831691505092915050565b6000611d4e8383611d24565b9150826002028217905092915050565b611d6782611620565b67ffffffffffffffff811115611d8057611d7f61101c565b5b611d8a8254611b81565b611d95828285611cd1565b600060209050601f831160018114611dc85760008415611db6578287015190505b611dc08582611d42565b865550611e28565b601f198416611dd686611bb2565b60005b82811015611dfe57848901518255600182019150602085019450602081019050611dd9565b86831015611e1b5784890151611e17601f891682611d24565b8355505b6001600288020188555050505b505050505050565b6000608082019050611e456000830187611611565b611e526020830186611611565b611e5f60408301856115a7565b611e6c60608301846115a7565b95945050505050565b7f4d75737320696e20646572205a756b756e6674206c696567656e000000000000600082015250565b6000611eab601a8361162b565b9150611eb682611e75565b602082019050919050565b60006020820190508181036000830152611eda81611e9e565b9050919050565b7f5a75677269666665206d75657373656e203e2030207365696e00000000000000600082015250565b6000611f1760198361162b565b9150611f2282611ee1565b602082019050919050565b60006020820190508181036000830152611f4681611f0a565b9050919050565b7f4e75722050617469656e74206461726620426572656368746967756e67656e2060008201527f656e746665726e656e0000000000000000000000000000000000000000000000602082015250565b6000611fa960298361162b565b9150611fb482611f4d565b604082019050919050565b60006020820190508181036000830152611fd881611f9c565b9050919050565b7f4b65696e2045696e7472616720676566756e64656e0000000000000000000000600082015250565b600061201560158361162b565b915061202082611fdf565b602082019050919050565b6000602082019050818103600083015261204481612008565b9050919050565b7f4b65696e65205a75677269666665207565627269670000000000000000000000600082015250565b600061208160158361162b565b915061208c8261204b565b602082019050919050565b600060208201905081810360008301526120b081612074565b9050919050565b7f4e487b7100000000000000000000000000000000000000000000000000000000600052601160045260246000fd5b60006120f1826111e9565b91506120fc836111e9565b9250828203905081811115612114576121136120b7565b5b92915050565b7f5a756772696666737a6569747261756d20616267656c617566656e0000000000600082015250565b6000612150601b8361162b565b915061215b8261211a565b602082019050919050565b6000602082019050818103600083015261217f81612143565b9050919050565b600060408201905061219b6000830185611611565b6121a86020830184611611565b939250505056fea264697066735822122086718250008e91bd0072695e2321dcba73bb49ca041956120665145da82f3a7964736f6c634300081c0033",
  "linkReferences": {},
  "deployedLinkReferences": {}
}